{"contracts/AuctionMarketplace.sol":{"AuctionMarketplace":{"abi":[{"inputs":[],"stateMutability":"nonpayable","type":"constructor"},{"inputs":[{"internalType":"address","name":"owner","type":"address"}],"name":"OwnableInvalidOwner","type":"error"},{"inputs":[{"internalType":"address","name":"account","type":"address"}],"name":"OwnableUnauthorizedAccount","type":"error"},{"inputs":[],"name":"ReentrancyGuardReentrantCall","type":"error"},{"anonymous":false,"inputs":[{"indexed":true,"internalType":"uint256","name":"auctionId","type":"uint256"}],"name":"AuctionCancelled","type":"event"},{"anonymous":false,"inputs":[{"indexed":true,"internalType":"uint256","name":"auctionId","type":"uint256"},{"indexed":true,"internalType":"address","name":"auctioneer","type":"address"},{"indexed":false,"internalType":"string","name":"title","type":"string"},{"indexed":false,"internalType":"uint256","name":"startTime","type":"uint256"},{"indexed":false,"internalType":"uint256","name":"endTime","type":"uint256"}],"name":"AuctionCreated","type":"event"},{"anonymous":false,"inputs":[{"indexed":true,"internalType":"uint256","name":"auctionId","type":"uint256"},{"indexed":true,"internalType":"address","name":"winner","type":"address"},{"indexed":false,"internalType":"uint256","name":"amount","type":"uint256"}],"name":"AuctionEnded","type":"event"},{"anonymous":false,"inputs":[{"indexed":true,"internalType":"uint256","name":"auctionId","type":"uint256"},{"indexed":true,"internalType":"address","name":"bidder","type":"address"},{"indexed":false,"internalType":"uint256","name":"amount","type":"uint256"},{"indexed":false,"internalType":"uint256","name":"highestPayableBid","type":"uint256"}],"name":"BidPlaced","type":"event"},{"anonymous":false,"inputs":[{"indexed":true,"internalType":"address","name":"previousOwner","type":"address"},{"indexed":true,"internalType":"address","name":"newOwner","type":"address"}],"name":"OwnershipTransferred","type":"event"},{"anonymous":false,"inputs":[{"indexed":true,"internalType":"address","name":"bidder","type":"address"},{"indexed":false,"internalType":"uint256","name":"amount","type":"uint256"}],"name":"Withdrawal","type":"event"},{"inputs":[],"name":"auctionIdCounter","outputs":[{"internalType":"uint256","name":"","type":"uint256"}],"stateMutability":"view","type":"function"},{"inputs":[{"internalType":"uint256","name":"","type":"uint256"}],"name":"auctions","outputs":[{"internalType":"uint256","name":"id","type":"uint256"},{"internalType":"address payable","name":"auctioneer","type":"address"},{"internalType":"string","name":"title","type":"string"},{"internalType":"string","name":"description","type":"string"},{"internalType":"string","name":"imageHash","type":"string"},{"internalType":"string","name":"category","type":"string"},{"internalType":"uint256","name":"startTime","type":"uint256"},{"internalType":"uint256","name":"endTime","type":"uint256"},{"internalType":"uint256","name":"minBidIncrement","type":"uint256"},{"internalType":"bool","name":"active","type":"bool"},{"internalType":"bool","name":"ended","type":"bool"},{"internalType":"bool","name":"cancelled","type":"bool"},{"internalType":"address payable","name":"highestBidder","type":"address"},{"internalType":"uint256","name":"highestBid","type":"uint256"},{"internalType":"uint256","name":"highestPayableBid","type":"uint256"}],"stateMutability":"view","type":"function"},{"inputs":[{"internalType":"uint256","name":"_auctionId","type":"uint256"}],"name":"cancelAuction","outputs":[],"stateMutability":"nonpayable","type":"function"},{"inputs":[{"internalType":"string","name":"_title","type":"string"},{"internalType":"string","name":"_description","type":"string"},{"internalType":"string","name":"_imageHash","type":"string"},{"internalType":"string","name":"_category","type":"string"},{"internalType":"uint256","name":"_startTime","type":"uint256"},{"internalType":"uint256","name":"_endTime","type":"uint256"},{"internalType":"uint256","name":"_minBidIncrement","type":"uint256"}],"name":"createAuction","outputs":[],"stateMutability":"nonpayable","type":"function"},{"inputs":[{"internalType":"uint256","name":"_auctionId","type":"uint256"}],"name":"endAuction","outputs":[],"stateMutability":"nonpayable","type":"function"},{"inputs":[{"internalType":"uint256","name":"_auctionId","type":"uint256"}],"name":"getAuction","outputs":[{"components":[{"internalType":"uint256","name":"id","type":"uint256"},{"internalType":"address payable","name":"auctioneer","type":"address"},{"internalType":"string","name":"title","type":"string"},{"internalType":"string","name":"description","type":"string"},{"internalType":"string","name":"imageHash","type":"string"},{"internalType":"string","name":"category","type":"string"},{"internalType":"uint256","name":"startTime","type":"uint256"},{"internalType":"uint256","name":"endTime","type":"uint256"},{"internalType":"uint256","name":"minBidIncrement","type":"uint256"},{"internalType":"bool","name":"active","type":"bool"},{"internalType":"bool","name":"ended","type":"bool"},{"internalType":"bool","name":"cancelled","type":"bool"},{"internalType":"address payable","name":"highestBidder","type":"address"},{"internalType":"uint256","name":"highestBid","type":"uint256"},{"internalType":"uint256","name":"highestPayableBid","type":"uint256"}],"internalType":"struct AuctionMarketplace.Auction","name":"","type":"tuple"}],"stateMutability":"view","type":"function"},{"inputs":[{"internalType":"uint256","name":"offset","type":"uint256"},{"internalType":"uint256","name":"limit","type":"uint256"}],"name":"getAuctions","outputs":[{"components":[{"internalType":"uint256","name":"id","type":"uint256"},{"internalType":"address payable","name":"auctioneer","type":"address"},{"internalType":"string","name":"title","type":"string"},{"internalType":"string","name":"description","type":"string"},{"internalType":"string","name":"imageHash","type":"string"},{"internalType":"string","name":"category","type":"string"},{"internalType":"uint256","name":"startTime","type":"uint256"},{"internalType":"uint256","name":"endTime","type":"uint256"},{"internalType":"uint256","name":"minBidIncrement","type":"uint256"},{"internalType":"bool","name":"active","type":"bool"},{"internalType":"bool","name":"ended","type":"bool"},{"internalType":"bool","name":"cancelled","type":"bool"},{"internalType":"address payable","name":"highestBidder","type":"address"},{"internalType":"uint256","name":"highestBid","type":"uint256"},{"internalType":"uint256","name":"highestPayableBid","type":"uint256"}],"internalType":"struct AuctionMarketplace.Auction[]","name":"","type":"tuple[]"}],"stateMutability":"view","type":"function"},{"inputs":[],"name":"owner","outputs":[{"internalType":"address","name":"","type":"address"}],"stateMutability":"view","type":"function"},{"inputs":[{"internalType":"address","name":"","type":"address"}],"name":"pendingReturns","outputs":[{"internalType":"uint256","name":"","type":"uint256"}],"stateMutability":"view","type":"function"},{"inputs":[{"internalType":"uint256","name":"_auctionId","type":"uint256"}],"name":"placeBid","outputs":[],"stateMutability":"payable","type":"function"},{"inputs":[],"name":"renounceOwnership","outputs":[],"stateMutability":"nonpayable","type":"function"},{"inputs":[{"internalType":"address","name":"newOwner","type":"address"}],"name":"transferOwnership","outputs":[],"stateMutability":"nonpayable","type":"function"},{"inputs":[],"name":"withdraw","outputs":[],"stateMutability":"nonpayable","type":"function"}],"evm":{"bytecode":{"linkReferences":{},"object":"6080806040523461007f57600160005533156100695760018054336001600160a01b03198216811790925560405191906001600160a01b03167f8be0079c531659141344cd1fd0a4f28419497f9722a3daafe3b4186f6b6457e0600080a3611a9990816100858239f35b631e4fbdf760e01b815260006004820152602490fd5b600080fdfe608080604052600436101561001357600080fd5b60003560e01c90816326b387bb146113ca5750806330eb8de414610bca5780633ccfd60b14610b09578063571a26a0146109d3578063715018a61461097657806378bd79351461085a5780638da5cb5b1461083157806396b5a7551461071e5780639979ef45146103ba578063b9a2de3a146101e1578063ceb6a22f14610161578063de0794ef146101435763f2fde38b146100ae57600080fd5b3461013e57602036600319011261013e576004356001600160a01b038181169182900361013e576100dd6116a1565b811561012557600154826bffffffffffffffffffffffff60a01b821617600155167f8be0079c531659141344cd1fd0a4f28419497f9722a3daafe3b4186f6b6457e0600080a3005b604051631e4fbdf760e01b815260006004820152602490fd5b600080fd5b3461013e57600036600319011261013e576020600254604051908152f35b3461013e57604036600319011261013e5761018060243560043561188f565b60405160209182820192808352815180945260408301938160408260051b8601019301916000955b8287106101b55785850386f35b9091929382806101d1600193603f198a820301865288516115c4565b96019201960195929190926101a8565b3461013e5760208060031936011261013e576004356101fe61177c565b806000526003825260406000209160098301805461021e60ff82166116f2565b60ff8160081c1661037d57600785015442106103405761ffff1916610100178082556001600160a01b03919060181c821680610292575b507fd2aa34a4fdbbc6dff6a3e56f46e0f3ae2a31d7785ff3487aa5c95c642acea5019291600b915460181c16940154604051908152a36001600055005b600080808093600b8a0154906102ac82600a8d01546117cf565b9081610322575b50508660018b0154165af16102c661179f565b50156102d25785610255565b60405162461bcd60e51b815260048101849052602260248201527f4661696c656420746f2073656e6420457468657220746f2061756374696f6e6560448201526132b960f11b6064820152608490fd5b8352600489526103376040842091825461176f565b90558a806102b3565b60405162461bcd60e51b8152600481018490526015602482015274105d58dd1a5bdb881b9bdd081e595d08195b991959605a1b6044820152606490fd5b60405162461bcd60e51b8152600481018490526015602482015274105d58dd1a5bdb88185b1c9958591e48195b991959605a1b6044820152606490fd5b60208060031936011261013e576004356103d261177c565b80600052600382526040600020600981019081546103f260ff82166116f2565b61040260ff8260081c1615611733565b60ff8160101c166106e557600682015442106106aa5760078201544210156106735760018201546001600160a01b039190821633146106365760181c8116610503575060088101805434106104d05782546301000000600160b81b0319163360181b6301000000600160b81b031617909255600b9134600a830155548282019080825534106104c7575b505b0154604051923484528301527f51db8e23b3f4479b162fd48823b8402895442b8f6cfd94f66239391881ec7b6f60403393a36001600055005b3490558461048c565b60405162461bcd60e51b815260206004820152600b60248201526a42696420746f6f206c6f7760a81b6044820152606490fd5b91600b820192835434119081156105e757600a8401918254341160001461059a57509181600b9593610583935490835460181c166000526004895261054e604060002091825461176f565b9055805482546301000000600160b81b0319163360181b6301000000600160b81b03161790925534905560088401549061176f565b90348211610592575b5561048e565b34915061058c565b91925050156104d057600b92336000526004865260406000206105be34825461176f565b90556105ce60088401543461176f565b91548083116105df575b505561048e565b9150866105d8565b60405162461bcd60e51b815260048101889052602160248201527f42696420746f6f206c6f77202862656c6f772063757272656e742070726963656044820152602960f81b6064820152608490fd5b60405162461bcd60e51b8152600481018790526015602482015274105d58dd1a5bdb99595c8818d85b9b9bdd08189a59605a1b6044820152606490fd5b60405162461bcd60e51b815260048101869052600f60248201526e105d58dd1a5bdb88195e1c1a5c9959608a1b6044820152606490fd5b60405162461bcd60e51b8152600481018690526013602482015272105d58dd1a5bdb881b9bdd081cdd185c9d1959606a1b6044820152606490fd5b60405162461bcd60e51b8152600481018690526011602482015270105d58dd1a5bdb8818d85b98d95b1b1959607a1b6044820152606490fd5b3461013e57602036600319011261013e5760043561073a61177c565b600081815260036020526040902060018101546001600160a01b0390811633036107ec576009820162010000815461077460ff82166116f2565b61078460ff8260081c1615611733565b62ff00ff19161780915560181c1690816107c6575b827f2809c7e17bf978fbc7194c0a694b638c4215e9140cacc6c38ca36010b45697df600080a26001600055005b600a01549060005260046020526107e3604060002091825461176f565b90558180610799565b60405162461bcd60e51b815260206004820152601a60248201527f4f6e6c792061756374696f6e6565722063616e2063616e63656c0000000000006044820152606490fd5b3461013e57600036600319011261013e576001546040516001600160a01b039091168152602090f35b3461013e57602036600319011261013e576108736117f3565b5060043560005260036020526109726040600020600b6040519161089683611405565b8054835260018101546001600160a01b0390811660208501526108bb600283016114de565b60408501526108cc600383016114de565b60608501526108dd600483016114de565b60808501526108ee600583016114de565b60a0850152600682015460c0850152600782015460e08501526008820154610100850152600982015460ff8116151561012086015260ff8160081c16151561014086015260ff8160101c16151561016086015260181c16610180840152600a8101546101a084015201546101c08201526040519182916020835260208301906115c4565b0390f35b3461013e57600036600319011261013e5761098f6116a1565b600180546001600160a01b031981169091556000906001600160a01b03167f8be0079c531659141344cd1fd0a4f28419497f9722a3daafe3b4186f6b6457e08280a3005b3461013e57602036600319011261013e576004356000908152600360205260409020805460018201546001600160a01b0390811692610a14600282016114de565b90610a21600382016114de565b92610a2e600483016114de565b93610a3b600584016114de565b94600684015495600785015490600886015492600987015494600a88015497600b0154986040519c8d9c8d5260208d01528b6101e06040819201528c01610a8191611584565b8b810360608d0152610a9291611584565b8a810360808c0152610aa391611584565b89810360a08b0152610ab491611584565b9660c089015260e088015261010087015260ff811615156101208701528060081c60ff1615156101408701528060101c60ff16151561016087015260181c166101808501526101a08401526101c08301520390f35b3461013e57600036600319011261013e57610b2261177c565b336000526004602052604060002080549081610b40575b6001600055005b60009055600080808084335af1610b5561179f565b5015610b8e576040519081527f7fcf532c15f0a6db0bd6d0e038bea71d30d808c7d98cb3bf7268a95bf5081b6560203392a28080610b39565b60405162461bcd60e51b81526020600482015260146024820152732330b4b632b2103a379039b2b7321022ba3432b960611b6044820152606490fd5b3461013e5760e036600319011261013e576004356001600160401b03811161013e57610bfa90369060040161145d565b6024356001600160401b03811161013e57610c1990369060040161145d565b6044356001600160401b03811161013e57610c3890369060040161145d565b906064356001600160401b03811161013e57610c5890369060040161145d565b42608435106113855760843560a43511156113365760c435156112f157610c806002546116cd565b928360025560405192610c9284611405565b8484523360208501528560408501526060840152608083015260a082015260843560c082015260a43560e082015260c435610100820152600161012082015260006101408201526000610160820152600061018082015260006101a082015260006101c08201528160005260036020526040600020908051825560018060a01b0360208201511660018301906bffffffffffffffffffffffff60a01b82541617905560408101518051906001600160401b03821161106b578190610d5960028601546114a4565b601f811161129e575b50602090601f831160011461122c57600092611221575b50508160011b916000199060031b1c19161760028301555b60608101518051906001600160401b03821161106b578190610db660038601546114a4565b601f81116111ce575b50602090601f831160011461115c57600092611151575b50508160011b916000199060031b1c19161760038301555b60808101518051906001600160401b03821161106b578190610e1360048601546114a4565b601f81116110fe575b50602090601f831160011461108c57600092611081575b50508160011b916000199060031b1c19161760048301555b60a08101518051906001600160401b03821161106b57610e6e60058501546114a4565b601f8111611024575b50602090601f8311600114610fae579180600b94926101c094600092610fa3575b50508160011b916000199060031b1c19161760058501555b60c0810151600685015560e081015160078501556101008101516008850155610f44600985016101208301511515815461ff00610140860151151560081b169060ff62ff0000610160880151151560101b1693169062ffffff1916171717815560018060a01b03610180840151168154906301000000600160b81b039060181b16906301000000600160b81b031916179055565b6101a0810151600a85015501519101557f5db69880ecd741cb72927505845a9c757184babea65c98a27788100ff8fbd186610f8a60405193606085526060850190611584565b92608435602082015260a43560408201528033940390a3005b015190508880610e98565b906005850160005260206000209160005b601f198516811061100c575092600b94926001926101c09583601f19811610610ff3575b505050811b016005850155610eb0565b015160001960f88460031b161c19169055888080610fe3565b91926020600181928685015181550194019201610fbf565b600585016000526020600020601f840160051c810160208510611064575b601f830160051c82018110611058575050610e77565b60008155600101611042565b5080611042565b634e487b7160e01b600052604160045260246000fd5b015190508680610e33565b9250600485016000526020600020906000935b601f19841685106110e3576001945083601f198116106110ca575b505050811b016004830155610e4b565b015160001960f88460031b161c191690558680806110ba565b8181015183556020948501946001909301929091019061109f565b909150600485016000526020600020601f840160051c81016020851061114a575b90849392915b601f830160051c8201811061113b575050610e1c565b60008155859450600101611125565b508061111f565b015190508680610dd6565b9250600385016000526020600020906000935b601f19841685106111b3576001945083601f1981161061119a575b505050811b016003830155610dee565b015160001960f88460031b161c1916905586808061118a565b8181015183556020948501946001909301929091019061116f565b909150600385016000526020600020601f840160051c81016020851061121a575b90849392915b601f830160051c8201811061120b575050610dbf565b600081558594506001016111f5565b50806111ef565b015190508680610d79565b9250600285016000526020600020906000935b601f1984168510611283576001945083601f1981161061126a575b505050811b016002830155610d91565b015160001960f88460031b161c1916905586808061125a565b8181015183556020948501946001909301929091019061123f565b909150600285016000526020600020601f840160051c8101602085106112ea575b90849392915b601f830160051c820181106112db575050610d62565b600081558594506001016112c5565b50806112bf565b60405162461bcd60e51b815260206004820152601960248201527f42696420696e6372656d656e74206d757374206265203e2030000000000000006044820152606490fd5b60405162461bcd60e51b815260206004820152602160248201527f456e642074696d65206d7573742062652061667465722073746172742074696d6044820152606560f81b6064820152608490fd5b60405162461bcd60e51b815260206004820152601c60248201527f53746172742074696d65206d75737420626520696e20667574757265000000006044820152606490fd5b3461013e57602036600319011261013e576004356001600160a01b038116919082900361013e57602091600052600482526040600020548152f35b6101e081019081106001600160401b0382111761106b57604052565b90601f801991011681019081106001600160401b0382111761106b57604052565b6001600160401b03811161106b57601f01601f191660200190565b81601f8201121561013e5780359061147482611442565b926114826040519485611421565b8284526020838301011161013e57816000926020809301838601378301015290565b90600182811c921680156114d4575b60208310146114be57565b634e487b7160e01b600052602260045260246000fd5b91607f16916114b3565b90604051918260008254926114f2846114a4565b908184526001948581169081600014611561575060011461151e575b505061151c92500383611421565b565b9093915060005260209081600020936000915b81831061154957505061151c9350820101388061150e565b85548884018501529485019487945091830191611531565b91505061151c94506020925060ff191682840152151560051b820101388061150e565b919082519283825260005b8481106115b0575050826000602080949584010152601f8019910116010190565b60208183018101518483018201520161158f565b908151815260018060a01b03918260208201511660208301526116356116236116116115ff60408501516101e0806040890152870190611584565b60608501518682036060880152611584565b60808401518582036080870152611584565b60a083015184820360a0860152611584565b9260c082015160c084015260e082015160e08401526101008083015190840152610120808301511515908401526101408083015115159084015261016080830151151590840152610180908183015116908301526101a080820151908301526101c08091015191015290565b6001546001600160a01b031633036116b557565b60405163118cdaa760e01b8152336004820152602490fd5b60001981146116dc5760010190565b634e487b7160e01b600052601160045260246000fd5b156116f957565b60405162461bcd60e51b815260206004820152601260248201527141756374696f6e206e6f742061637469766560701b6044820152606490fd5b1561173a57565b60405162461bcd60e51b815260206004820152600d60248201526c105d58dd1a5bdb88195b991959609a1b6044820152606490fd5b919082018092116116dc57565b60026000541461178d576002600055565b604051633ee5aeb560e01b8152600490fd5b3d156117ca573d906117b082611442565b916117be6040519384611421565b82523d6000602084013e565b606090565b919082039182116116dc57565b6001600160401b03811161106b5760051b60200190565b6040519061180082611405565b816101c06000918281528260208201526060604082015260608082015260606080820152606060a08201528260c08201528260e08201528261010082015282610120820152826101408201528261016082015282610180820152826101a08201520152565b80518210156118795760209160051b010190565b634e487b7160e01b600052603260045260246000fd5b9060029081549081841015611a3c576118bc916118ad85928361176f565b90808211611a34575b506117cf565b906118c6826117dc565b926040906118d682519586611421565b838552601f196118e5856117dc565b0160005b818110611a1d57505060005b84811061190457505050505090565b61190e818361176f565b9060018083018093116116dc57611a1892600052600b600360209281845261196b886000209289519561194087611405565b8454875260018060a01b03809486015416908701526119608b85016114de565b8a87015283016114de565b606085015261197c600483016114de565b608085015261198d600583016114de565b60a0850152600682015460c0850152600782015460e08501526008808301546101008601526009830154809160ff91829182821615156101208a01521c1615156101408701528160101c16151561016086015260181c16610180840152600a8101546101a084015201546101c0820152611a078289611865565b52611a128188611865565b506116cd565b6118f5565b602090611a286117f3565b82828a010152016118e9565b9050386118b6565b50505050604051602081018181106001600160401b0382111761106b57604052600081529056fea2646970667358221220ca80f94211fa4a57827ba64c2f898472e2d7f624750ebc0a1bb051eb17b4706064736f6c63430008140033","opcodes":"PUSH1 0x80 DUP1 PUSH1 0x40 MSTORE CALLVALUE PUSH2 0x7F JUMPI PUSH1 0x1 PUSH1 0x0 SSTORE CALLER ISZERO PUSH2 0x69 JUMPI PUSH1 0x1 DUP1 SLOAD CALLER PUSH1 0x1 PUSH1 0x1 PUSH1 0xA0 SHL SUB NOT DUP3 AND DUP2 OR SWAP1 SWAP3 SSTORE PUSH1 0x40 MLOAD SWAP2 SWAP1 PUSH1 0x1 PUSH1 0x1 PUSH1 0xA0 SHL SUB AND PUSH32 0x8BE0079C531659141344CD1FD0A4F28419497F9722A3DAAFE3B4186F6B6457E0 PUSH1 0x0 DUP1 LOG3 PUSH2 0x1A99 SWAP1 DUP2 PUSH2 0x85 DUP3 CODECOPY RETURN JUMPDEST PUSH4 0x1E4FBDF7 PUSH1 0xE0 SHL DUP2 MSTORE PUSH1 0x0 PUSH1 0x4 DUP3 ADD MSTORE PUSH1 0x24 SWAP1 REVERT JUMPDEST PUSH1 0x0 DUP1 REVERT INVALID PUSH1 0x80 DUP1 PUSH1 0x40 MSTORE PUSH1 0x4 CALLDATASIZE LT ISZERO PUSH2 0x13 JUMPI PUSH1 0x0 DUP1 REVERT JUMPDEST PUSH1 0x0 CALLDATALOAD PUSH1 0xE0 SHR SWAP1 DUP2 PUSH4 0x26B387BB EQ PUSH2 0x13CA JUMPI POP DUP1 PUSH4 0x30EB8DE4 EQ PUSH2 0xBCA JUMPI DUP1 PUSH4 0x3CCFD60B EQ PUSH2 0xB09 JUMPI DUP1 PUSH4 0x571A26A0 EQ PUSH2 0x9D3 JUMPI DUP1 PUSH4 0x715018A6 EQ PUSH2 0x976 JUMPI DUP1 PUSH4 0x78BD7935 EQ PUSH2 0x85A JUMPI DUP1 PUSH4 0x8DA5CB5B EQ PUSH2 0x831 JUMPI DUP1 PUSH4 0x96B5A755 EQ PUSH2 0x71E JUMPI DUP1 PUSH4 0x9979EF45 EQ PUSH2 0x3BA JUMPI DUP1 PUSH4 0xB9A2DE3A EQ PUSH2 0x1E1 JUMPI DUP1 PUSH4 0xCEB6A22F EQ PUSH2 0x161 JUMPI DUP1 PUSH4 0xDE0794EF EQ PUSH2 0x143 JUMPI PUSH4 0xF2FDE38B EQ PUSH2 0xAE JUMPI PUSH1 0x0 DUP1 REVERT JUMPDEST CALLVALUE PUSH2 0x13E JUMPI PUSH1 0x20 CALLDATASIZE PUSH1 0x3 NOT ADD SLT PUSH2 0x13E JUMPI PUSH1 0x4 CALLDATALOAD PUSH1 0x1 PUSH1 0x1 PUSH1 0xA0 SHL SUB DUP2 DUP2 AND SWAP2 DUP3 SWAP1 SUB PUSH2 0x13E JUMPI PUSH2 0xDD PUSH2 0x16A1 JUMP JUMPDEST DUP2 ISZERO PUSH2 0x125 JUMPI PUSH1 0x1 SLOAD DUP3 PUSH12 0xFFFFFFFFFFFFFFFFFFFFFFFF PUSH1 0xA0 SHL DUP3 AND OR PUSH1 0x1 SSTORE AND PUSH32 0x8BE0079C531659141344CD1FD0A4F28419497F9722A3DAAFE3B4186F6B6457E0 PUSH1 0x0 DUP1 LOG3 STOP JUMPDEST PUSH1 0x40 MLOAD PUSH4 0x1E4FBDF7 PUSH1 0xE0 SHL DUP2 MSTORE PUSH1 0x0 PUSH1 0x4 DUP3 ADD MSTORE PUSH1 0x24 SWAP1 REVERT JUMPDEST PUSH1 0x0 DUP1 REVERT JUMPDEST CALLVALUE PUSH2 0x13E JUMPI PUSH1 0x0 CALLDATASIZE PUSH1 0x3 NOT ADD SLT PUSH2 0x13E JUMPI PUSH1 0x20 PUSH1 0x2 SLOAD PUSH1 0x40 MLOAD SWAP1 DUP2 MSTORE RETURN JUMPDEST CALLVALUE PUSH2 0x13E JUMPI PUSH1 0x40 CALLDATASIZE PUSH1 0x3 NOT ADD SLT PUSH2 0x13E JUMPI PUSH2 0x180 PUSH1 0x24 CALLDATALOAD PUSH1 0x4 CALLDATALOAD PUSH2 0x188F JUMP JUMPDEST PUSH1 0x40 MLOAD PUSH1 0x20 SWAP2 DUP3 DUP3 ADD SWAP3 DUP1 DUP4 MSTORE DUP2 MLOAD DUP1 SWAP5 MSTORE PUSH1 0x40 DUP4 ADD SWAP4 DUP2 PUSH1 0x40 DUP3 PUSH1 0x5 SHL DUP7 ADD ADD SWAP4 ADD SWAP2 PUSH1 0x0 SWAP6 JUMPDEST DUP3 DUP8 LT PUSH2 0x1B5 JUMPI DUP6 DUP6 SUB DUP7 RETURN JUMPDEST SWAP1 SWAP2 SWAP3 SWAP4 DUP3 DUP1 PUSH2 0x1D1 PUSH1 0x1 SWAP4 PUSH1 0x3F NOT DUP11 DUP3 SUB ADD DUP7 MSTORE DUP9 MLOAD PUSH2 0x15C4 JUMP JUMPDEST SWAP7 ADD SWAP3 ADD SWAP7 ADD SWAP6 SWAP3 SWAP2 SWAP1 SWAP3 PUSH2 0x1A8 JUMP JUMPDEST CALLVALUE PUSH2 0x13E JUMPI PUSH1 0x20 DUP1 PUSH1 0x3 NOT CALLDATASIZE ADD SLT PUSH2 0x13E JUMPI PUSH1 0x4 CALLDATALOAD PUSH2 0x1FE PUSH2 0x177C JUMP JUMPDEST DUP1 PUSH1 0x0 MSTORE PUSH1 0x3 DUP3 MSTORE PUSH1 0x40 PUSH1 0x0 KECCAK256 SWAP2 PUSH1 0x9 DUP4 ADD DUP1 SLOAD PUSH2 0x21E PUSH1 0xFF DUP3 AND PUSH2 0x16F2 JUMP JUMPDEST PUSH1 0xFF DUP2 PUSH1 0x8 SHR AND PUSH2 0x37D JUMPI PUSH1 0x7 DUP6 ADD SLOAD TIMESTAMP LT PUSH2 0x340 JUMPI PUSH2 0xFFFF NOT AND PUSH2 0x100 OR DUP1 DUP3 SSTORE PUSH1 0x1 PUSH1 0x1 PUSH1 0xA0 SHL SUB SWAP2 SWAP1 PUSH1 0x18 SHR DUP3 AND DUP1 PUSH2 0x292 JUMPI JUMPDEST POP PUSH32 0xD2AA34A4FDBBC6DFF6A3E56F46E0F3AE2A31D7785FF3487AA5C95C642ACEA501 SWAP3 SWAP2 PUSH1 0xB SWAP2 SLOAD PUSH1 0x18 SHR AND SWAP5 ADD SLOAD PUSH1 0x40 MLOAD SWAP1 DUP2 MSTORE LOG3 PUSH1 0x1 PUSH1 0x0 SSTORE STOP JUMPDEST PUSH1 0x0 DUP1 DUP1 DUP1 SWAP4 PUSH1 0xB DUP11 ADD SLOAD SWAP1 PUSH2 0x2AC DUP3 PUSH1 0xA DUP14 ADD SLOAD PUSH2 0x17CF JUMP JUMPDEST SWAP1 DUP2 PUSH2 0x322 JUMPI JUMPDEST POP POP DUP7 PUSH1 0x1 DUP12 ADD SLOAD AND GAS CALL PUSH2 0x2C6 PUSH2 0x179F JUMP JUMPDEST POP ISZERO PUSH2 0x2D2 JUMPI DUP6 PUSH2 0x255 JUMP JUMPDEST PUSH1 0x40 MLOAD PUSH3 0x461BCD PUSH1 0xE5 SHL DUP2 MSTORE PUSH1 0x4 DUP2 ADD DUP5 SWAP1 MSTORE PUSH1 0x22 PUSH1 0x24 DUP3 ADD MSTORE PUSH32 0x4661696C656420746F2073656E6420457468657220746F2061756374696F6E65 PUSH1 0x44 DUP3 ADD MSTORE PUSH2 0x32B9 PUSH1 0xF1 SHL PUSH1 0x64 DUP3 ADD MSTORE PUSH1 0x84 SWAP1 REVERT JUMPDEST DUP4 MSTORE PUSH1 0x4 DUP10 MSTORE PUSH2 0x337 PUSH1 0x40 DUP5 KECCAK256 SWAP2 DUP3 SLOAD PUSH2 0x176F JUMP JUMPDEST SWAP1 SSTORE DUP11 DUP1 PUSH2 0x2B3 JUMP JUMPDEST PUSH1 0x40 MLOAD PUSH3 0x461BCD PUSH1 0xE5 SHL DUP2 MSTORE PUSH1 0x4 DUP2 ADD DUP5 SWAP1 MSTORE PUSH1 0x15 PUSH1 0x24 DUP3 ADD MSTORE PUSH21 0x105D58DD1A5BDB881B9BDD081E595D08195B991959 PUSH1 0x5A SHL PUSH1 0x44 DUP3 ADD MSTORE PUSH1 0x64 SWAP1 REVERT JUMPDEST PUSH1 0x40 MLOAD PUSH3 0x461BCD PUSH1 0xE5 SHL DUP2 MSTORE PUSH1 0x4 DUP2 ADD DUP5 SWAP1 MSTORE PUSH1 0x15 PUSH1 0x24 DUP3 ADD MSTORE PUSH21 0x105D58DD1A5BDB88185B1C9958591E48195B991959 PUSH1 0x5A SHL PUSH1 0x44 DUP3 ADD MSTORE PUSH1 0x64 SWAP1 REVERT JUMPDEST PUSH1 0x20 DUP1 PUSH1 0x3 NOT CALLDATASIZE ADD SLT PUSH2 0x13E JUMPI PUSH1 0x4 CALLDATALOAD PUSH2 0x3D2 PUSH2 0x177C JUMP JUMPDEST DUP1 PUSH1 0x0 MSTORE PUSH1 0x3 DUP3 MSTORE PUSH1 0x40 PUSH1 0x0 KECCAK256 PUSH1 0x9 DUP2 ADD SWAP1 DUP2 SLOAD PUSH2 0x3F2 PUSH1 0xFF DUP3 AND PUSH2 0x16F2 JUMP JUMPDEST PUSH2 0x402 PUSH1 0xFF DUP3 PUSH1 0x8 SHR AND ISZERO PUSH2 0x1733 JUMP JUMPDEST PUSH1 0xFF DUP2 PUSH1 0x10 SHR AND PUSH2 0x6E5 JUMPI PUSH1 0x6 DUP3 ADD SLOAD TIMESTAMP LT PUSH2 0x6AA JUMPI PUSH1 0x7 DUP3 ADD SLOAD TIMESTAMP LT ISZERO PUSH2 0x673 JUMPI PUSH1 0x1 DUP3 ADD SLOAD PUSH1 0x1 PUSH1 0x1 PUSH1 0xA0 SHL SUB SWAP2 SWAP1 DUP3 AND CALLER EQ PUSH2 0x636 JUMPI PUSH1 0x18 SHR DUP2 AND PUSH2 0x503 JUMPI POP PUSH1 0x8 DUP2 ADD DUP1 SLOAD CALLVALUE LT PUSH2 0x4D0 JUMPI DUP3 SLOAD PUSH4 0x1000000 PUSH1 0x1 PUSH1 0xB8 SHL SUB NOT AND CALLER PUSH1 0x18 SHL PUSH4 0x1000000 PUSH1 0x1 PUSH1 0xB8 SHL SUB AND OR SWAP1 SWAP3 SSTORE PUSH1 0xB SWAP2 CALLVALUE PUSH1 0xA DUP4 ADD SSTORE SLOAD DUP3 DUP3 ADD SWAP1 DUP1 DUP3 SSTORE CALLVALUE LT PUSH2 0x4C7 JUMPI JUMPDEST POP JUMPDEST ADD SLOAD PUSH1 0x40 MLOAD SWAP3 CALLVALUE DUP5 MSTORE DUP4 ADD MSTORE PUSH32 0x51DB8E23B3F4479B162FD48823B8402895442B8F6CFD94F66239391881EC7B6F PUSH1 0x40 CALLER SWAP4 LOG3 PUSH1 0x1 PUSH1 0x0 SSTORE STOP JUMPDEST CALLVALUE SWAP1 SSTORE DUP5 PUSH2 0x48C JUMP JUMPDEST PUSH1 0x40 MLOAD PUSH3 0x461BCD PUSH1 0xE5 SHL DUP2 MSTORE PUSH1 0x20 PUSH1 0x4 DUP3 ADD MSTORE PUSH1 0xB PUSH1 0x24 DUP3 ADD MSTORE PUSH11 0x42696420746F6F206C6F77 PUSH1 0xA8 SHL PUSH1 0x44 DUP3 ADD MSTORE PUSH1 0x64 SWAP1 REVERT JUMPDEST SWAP2 PUSH1 0xB DUP3 ADD SWAP3 DUP4 SLOAD CALLVALUE GT SWAP1 DUP2 ISZERO PUSH2 0x5E7 JUMPI PUSH1 0xA DUP5 ADD SWAP2 DUP3 SLOAD CALLVALUE GT PUSH1 0x0 EQ PUSH2 0x59A JUMPI POP SWAP2 DUP2 PUSH1 0xB SWAP6 SWAP4 PUSH2 0x583 SWAP4 SLOAD SWAP1 DUP4 SLOAD PUSH1 0x18 SHR AND PUSH1 0x0 MSTORE PUSH1 0x4 DUP10 MSTORE PUSH2 0x54E PUSH1 0x40 PUSH1 0x0 KECCAK256 SWAP2 DUP3 SLOAD PUSH2 0x176F JUMP JUMPDEST SWAP1 SSTORE DUP1 SLOAD DUP3 SLOAD PUSH4 0x1000000 PUSH1 0x1 PUSH1 0xB8 SHL SUB NOT AND CALLER PUSH1 0x18 SHL PUSH4 0x1000000 PUSH1 0x1 PUSH1 0xB8 SHL SUB AND OR SWAP1 SWAP3 SSTORE CALLVALUE SWAP1 SSTORE PUSH1 0x8 DUP5 ADD SLOAD SWAP1 PUSH2 0x176F JUMP JUMPDEST SWAP1 CALLVALUE DUP3 GT PUSH2 0x592 JUMPI JUMPDEST SSTORE PUSH2 0x48E JUMP JUMPDEST CALLVALUE SWAP2 POP PUSH2 0x58C JUMP JUMPDEST SWAP2 SWAP3 POP POP ISZERO PUSH2 0x4D0 JUMPI PUSH1 0xB SWAP3 CALLER PUSH1 0x0 MSTORE PUSH1 0x4 DUP7 MSTORE PUSH1 0x40 PUSH1 0x0 KECCAK256 PUSH2 0x5BE CALLVALUE DUP3 SLOAD PUSH2 0x176F JUMP JUMPDEST SWAP1 SSTORE PUSH2 0x5CE PUSH1 0x8 DUP5 ADD SLOAD CALLVALUE PUSH2 0x176F JUMP JUMPDEST SWAP2 SLOAD DUP1 DUP4 GT PUSH2 0x5DF JUMPI JUMPDEST POP SSTORE PUSH2 0x48E JUMP JUMPDEST SWAP2 POP DUP7 PUSH2 0x5D8 JUMP JUMPDEST PUSH1 0x40 MLOAD PUSH3 0x461BCD PUSH1 0xE5 SHL DUP2 MSTORE PUSH1 0x4 DUP2 ADD DUP9 SWAP1 MSTORE PUSH1 0x21 PUSH1 0x24 DUP3 ADD MSTORE PUSH32 0x42696420746F6F206C6F77202862656C6F772063757272656E74207072696365 PUSH1 0x44 DUP3 ADD MSTORE PUSH1 0x29 PUSH1 0xF8 SHL PUSH1 0x64 DUP3 ADD MSTORE PUSH1 0x84 SWAP1 REVERT JUMPDEST PUSH1 0x40 MLOAD PUSH3 0x461BCD PUSH1 0xE5 SHL DUP2 MSTORE PUSH1 0x4 DUP2 ADD DUP8 SWAP1 MSTORE PUSH1 0x15 PUSH1 0x24 DUP3 ADD MSTORE PUSH21 0x105D58DD1A5BDB99595C8818D85B9B9BDD08189A59 PUSH1 0x5A SHL PUSH1 0x44 DUP3 ADD MSTORE PUSH1 0x64 SWAP1 REVERT JUMPDEST PUSH1 0x40 MLOAD PUSH3 0x461BCD PUSH1 0xE5 SHL DUP2 MSTORE PUSH1 0x4 DUP2 ADD DUP7 SWAP1 MSTORE PUSH1 0xF PUSH1 0x24 DUP3 ADD MSTORE PUSH15 0x105D58DD1A5BDB88195E1C1A5C9959 PUSH1 0x8A SHL PUSH1 0x44 DUP3 ADD MSTORE PUSH1 0x64 SWAP1 REVERT JUMPDEST PUSH1 0x40 MLOAD PUSH3 0x461BCD PUSH1 0xE5 SHL DUP2 MSTORE PUSH1 0x4 DUP2 ADD DUP7 SWAP1 MSTORE PUSH1 0x13 PUSH1 0x24 DUP3 ADD MSTORE PUSH19 0x105D58DD1A5BDB881B9BDD081CDD185C9D1959 PUSH1 0x6A SHL PUSH1 0x44 DUP3 ADD MSTORE PUSH1 0x64 SWAP1 REVERT JUMPDEST PUSH1 0x40 MLOAD PUSH3 0x461BCD PUSH1 0xE5 SHL DUP2 MSTORE PUSH1 0x4 DUP2 ADD DUP7 SWAP1 MSTORE PUSH1 0x11 PUSH1 0x24 DUP3 ADD MSTORE PUSH17 0x105D58DD1A5BDB8818D85B98D95B1B1959 PUSH1 0x7A SHL PUSH1 0x44 DUP3 ADD MSTORE PUSH1 0x64 SWAP1 REVERT JUMPDEST CALLVALUE PUSH2 0x13E JUMPI PUSH1 0x20 CALLDATASIZE PUSH1 0x3 NOT ADD SLT PUSH2 0x13E JUMPI PUSH1 0x4 CALLDATALOAD PUSH2 0x73A PUSH2 0x177C JUMP JUMPDEST PUSH1 0x0 DUP2 DUP2 MSTORE PUSH1 0x3 PUSH1 0x20 MSTORE PUSH1 0x40 SWAP1 KECCAK256 PUSH1 0x1 DUP2 ADD SLOAD PUSH1 0x1 PUSH1 0x1 PUSH1 0xA0 SHL SUB SWAP1 DUP2 AND CALLER SUB PUSH2 0x7EC JUMPI PUSH1 0x9 DUP3 ADD PUSH3 0x10000 DUP2 SLOAD PUSH2 0x774 PUSH1 0xFF DUP3 AND PUSH2 0x16F2 JUMP JUMPDEST PUSH2 0x784 PUSH1 0xFF DUP3 PUSH1 0x8 SHR AND ISZERO PUSH2 0x1733 JUMP JUMPDEST PUSH3 0xFF00FF NOT AND OR DUP1 SWAP2 SSTORE PUSH1 0x18 SHR AND SWAP1 DUP2 PUSH2 0x7C6 JUMPI JUMPDEST DUP3 PUSH32 0x2809C7E17BF978FBC7194C0A694B638C4215E9140CACC6C38CA36010B45697DF PUSH1 0x0 DUP1 LOG2 PUSH1 0x1 PUSH1 0x0 SSTORE STOP JUMPDEST PUSH1 0xA ADD SLOAD SWAP1 PUSH1 0x0 MSTORE PUSH1 0x4 PUSH1 0x20 MSTORE PUSH2 0x7E3 PUSH1 0x40 PUSH1 0x0 KECCAK256 SWAP2 DUP3 SLOAD PUSH2 0x176F JUMP JUMPDEST SWAP1 SSTORE DUP2 DUP1 PUSH2 0x799 JUMP JUMPDEST PUSH1 0x40 MLOAD PUSH3 0x461BCD PUSH1 0xE5 SHL DUP2 MSTORE PUSH1 0x20 PUSH1 0x4 DUP3 ADD MSTORE PUSH1 0x1A PUSH1 0x24 DUP3 ADD MSTORE PUSH32 0x4F6E6C792061756374696F6E6565722063616E2063616E63656C000000000000 PUSH1 0x44 DUP3 ADD MSTORE PUSH1 0x64 SWAP1 REVERT JUMPDEST CALLVALUE PUSH2 0x13E JUMPI PUSH1 0x0 CALLDATASIZE PUSH1 0x3 NOT ADD SLT PUSH2 0x13E JUMPI PUSH1 0x1 SLOAD PUSH1 0x40 MLOAD PUSH1 0x1 PUSH1 0x1 PUSH1 0xA0 SHL SUB SWAP1 SWAP2 AND DUP2 MSTORE PUSH1 0x20 SWAP1 RETURN JUMPDEST CALLVALUE PUSH2 0x13E JUMPI PUSH1 0x20 CALLDATASIZE PUSH1 0x3 NOT ADD SLT PUSH2 0x13E JUMPI PUSH2 0x873 PUSH2 0x17F3 JUMP JUMPDEST POP PUSH1 0x4 CALLDATALOAD PUSH1 0x0 MSTORE PUSH1 0x3 PUSH1 0x20 MSTORE PUSH2 0x972 PUSH1 0x40 PUSH1 0x0 KECCAK256 PUSH1 0xB PUSH1 0x40 MLOAD SWAP2 PUSH2 0x896 DUP4 PUSH2 0x1405 JUMP JUMPDEST DUP1 SLOAD DUP4 MSTORE PUSH1 0x1 DUP2 ADD SLOAD PUSH1 0x1 PUSH1 0x1 PUSH1 0xA0 SHL SUB SWAP1 DUP2 AND PUSH1 0x20 DUP6 ADD MSTORE PUSH2 0x8BB PUSH1 0x2 DUP4 ADD PUSH2 0x14DE JUMP JUMPDEST PUSH1 0x40 DUP6 ADD MSTORE PUSH2 0x8CC PUSH1 0x3 DUP4 ADD PUSH2 0x14DE JUMP JUMPDEST PUSH1 0x60 DUP6 ADD MSTORE PUSH2 0x8DD PUSH1 0x4 DUP4 ADD PUSH2 0x14DE JUMP JUMPDEST PUSH1 0x80 DUP6 ADD MSTORE PUSH2 0x8EE PUSH1 0x5 DUP4 ADD PUSH2 0x14DE JUMP JUMPDEST PUSH1 0xA0 DUP6 ADD MSTORE PUSH1 0x6 DUP3 ADD SLOAD PUSH1 0xC0 DUP6 ADD MSTORE PUSH1 0x7 DUP3 ADD SLOAD PUSH1 0xE0 DUP6 ADD MSTORE PUSH1 0x8 DUP3 ADD SLOAD PUSH2 0x100 DUP6 ADD MSTORE PUSH1 0x9 DUP3 ADD SLOAD PUSH1 0xFF DUP2 AND ISZERO ISZERO PUSH2 0x120 DUP7 ADD MSTORE PUSH1 0xFF DUP2 PUSH1 0x8 SHR AND ISZERO ISZERO PUSH2 0x140 DUP7 ADD MSTORE PUSH1 0xFF DUP2 PUSH1 0x10 SHR AND ISZERO ISZERO PUSH2 0x160 DUP7 ADD MSTORE PUSH1 0x18 SHR AND PUSH2 0x180 DUP5 ADD MSTORE PUSH1 0xA DUP2 ADD SLOAD PUSH2 0x1A0 DUP5 ADD MSTORE ADD SLOAD PUSH2 0x1C0 DUP3 ADD MSTORE PUSH1 0x40 MLOAD SWAP2 DUP3 SWAP2 PUSH1 0x20 DUP4 MSTORE PUSH1 0x20 DUP4 ADD SWAP1 PUSH2 0x15C4 JUMP JUMPDEST SUB SWAP1 RETURN JUMPDEST CALLVALUE PUSH2 0x13E JUMPI PUSH1 0x0 CALLDATASIZE PUSH1 0x3 NOT ADD SLT PUSH2 0x13E JUMPI PUSH2 0x98F PUSH2 0x16A1 JUMP JUMPDEST PUSH1 0x1 DUP1 SLOAD PUSH1 0x1 PUSH1 0x1 PUSH1 0xA0 SHL SUB NOT DUP2 AND SWAP1 SWAP2 SSTORE PUSH1 0x0 SWAP1 PUSH1 0x1 PUSH1 0x1 PUSH1 0xA0 SHL SUB AND PUSH32 0x8BE0079C531659141344CD1FD0A4F28419497F9722A3DAAFE3B4186F6B6457E0 DUP3 DUP1 LOG3 STOP JUMPDEST CALLVALUE PUSH2 0x13E JUMPI PUSH1 0x20 CALLDATASIZE PUSH1 0x3 NOT ADD SLT PUSH2 0x13E JUMPI PUSH1 0x4 CALLDATALOAD PUSH1 0x0 SWAP1 DUP2 MSTORE PUSH1 0x3 PUSH1 0x20 MSTORE PUSH1 0x40 SWAP1 KECCAK256 DUP1 SLOAD PUSH1 0x1 DUP3 ADD SLOAD PUSH1 0x1 PUSH1 0x1 PUSH1 0xA0 SHL SUB SWAP1 DUP2 AND SWAP3 PUSH2 0xA14 PUSH1 0x2 DUP3 ADD PUSH2 0x14DE JUMP JUMPDEST SWAP1 PUSH2 0xA21 PUSH1 0x3 DUP3 ADD PUSH2 0x14DE JUMP JUMPDEST SWAP3 PUSH2 0xA2E PUSH1 0x4 DUP4 ADD PUSH2 0x14DE JUMP JUMPDEST SWAP4 PUSH2 0xA3B PUSH1 0x5 DUP5 ADD PUSH2 0x14DE JUMP JUMPDEST SWAP5 PUSH1 0x6 DUP5 ADD SLOAD SWAP6 PUSH1 0x7 DUP6 ADD SLOAD SWAP1 PUSH1 0x8 DUP7 ADD SLOAD SWAP3 PUSH1 0x9 DUP8 ADD SLOAD SWAP5 PUSH1 0xA DUP9 ADD SLOAD SWAP8 PUSH1 0xB ADD SLOAD SWAP9 PUSH1 0x40 MLOAD SWAP13 DUP14 SWAP13 DUP14 MSTORE PUSH1 0x20 DUP14 ADD MSTORE DUP12 PUSH2 0x1E0 PUSH1 0x40 DUP2 SWAP3 ADD MSTORE DUP13 ADD PUSH2 0xA81 SWAP2 PUSH2 0x1584 JUMP JUMPDEST DUP12 DUP2 SUB PUSH1 0x60 DUP14 ADD MSTORE PUSH2 0xA92 SWAP2 PUSH2 0x1584 JUMP JUMPDEST DUP11 DUP2 SUB PUSH1 0x80 DUP13 ADD MSTORE PUSH2 0xAA3 SWAP2 PUSH2 0x1584 JUMP JUMPDEST DUP10 DUP2 SUB PUSH1 0xA0 DUP12 ADD MSTORE PUSH2 0xAB4 SWAP2 PUSH2 0x1584 JUMP JUMPDEST SWAP7 PUSH1 0xC0 DUP10 ADD MSTORE PUSH1 0xE0 DUP9 ADD MSTORE PUSH2 0x100 DUP8 ADD MSTORE PUSH1 0xFF DUP2 AND ISZERO ISZERO PUSH2 0x120 DUP8 ADD MSTORE DUP1 PUSH1 0x8 SHR PUSH1 0xFF AND ISZERO ISZERO PUSH2 0x140 DUP8 ADD MSTORE DUP1 PUSH1 0x10 SHR PUSH1 0xFF AND ISZERO ISZERO PUSH2 0x160 DUP8 ADD MSTORE PUSH1 0x18 SHR AND PUSH2 0x180 DUP6 ADD MSTORE PUSH2 0x1A0 DUP5 ADD MSTORE PUSH2 0x1C0 DUP4 ADD MSTORE SUB SWAP1 RETURN JUMPDEST CALLVALUE PUSH2 0x13E JUMPI PUSH1 0x0 CALLDATASIZE PUSH1 0x3 NOT ADD SLT PUSH2 0x13E JUMPI PUSH2 0xB22 PUSH2 0x177C JUMP JUMPDEST CALLER PUSH1 0x0 MSTORE PUSH1 0x4 PUSH1 0x20 MSTORE PUSH1 0x40 PUSH1 0x0 KECCAK256 DUP1 SLOAD SWAP1 DUP2 PUSH2 0xB40 JUMPI JUMPDEST PUSH1 0x1 PUSH1 0x0 SSTORE STOP JUMPDEST PUSH1 0x0 SWAP1 SSTORE PUSH1 0x0 DUP1 DUP1 DUP1 DUP5 CALLER GAS CALL PUSH2 0xB55 PUSH2 0x179F JUMP JUMPDEST POP ISZERO PUSH2 0xB8E JUMPI PUSH1 0x40 MLOAD SWAP1 DUP2 MSTORE PUSH32 0x7FCF532C15F0A6DB0BD6D0E038BEA71D30D808C7D98CB3BF7268A95BF5081B65 PUSH1 0x20 CALLER SWAP3 LOG2 DUP1 DUP1 PUSH2 0xB39 JUMP JUMPDEST PUSH1 0x40 MLOAD PUSH3 0x461BCD PUSH1 0xE5 SHL DUP2 MSTORE PUSH1 0x20 PUSH1 0x4 DUP3 ADD MSTORE PUSH1 0x14 PUSH1 0x24 DUP3 ADD MSTORE PUSH20 0x2330B4B632B2103A379039B2B7321022BA3432B9 PUSH1 0x61 SHL PUSH1 0x44 DUP3 ADD MSTORE PUSH1 0x64 SWAP1 REVERT JUMPDEST CALLVALUE PUSH2 0x13E JUMPI PUSH1 0xE0 CALLDATASIZE PUSH1 0x3 NOT ADD SLT PUSH2 0x13E JUMPI PUSH1 0x4 CALLDATALOAD PUSH1 0x1 PUSH1 0x1 PUSH1 0x40 SHL SUB DUP2 GT PUSH2 0x13E JUMPI PUSH2 0xBFA SWAP1 CALLDATASIZE SWAP1 PUSH1 0x4 ADD PUSH2 0x145D JUMP JUMPDEST PUSH1 0x24 CALLDATALOAD PUSH1 0x1 PUSH1 0x1 PUSH1 0x40 SHL SUB DUP2 GT PUSH2 0x13E JUMPI PUSH2 0xC19 SWAP1 CALLDATASIZE SWAP1 PUSH1 0x4 ADD PUSH2 0x145D JUMP JUMPDEST PUSH1 0x44 CALLDATALOAD PUSH1 0x1 PUSH1 0x1 PUSH1 0x40 SHL SUB DUP2 GT PUSH2 0x13E JUMPI PUSH2 0xC38 SWAP1 CALLDATASIZE SWAP1 PUSH1 0x4 ADD PUSH2 0x145D JUMP JUMPDEST SWAP1 PUSH1 0x64 CALLDATALOAD PUSH1 0x1 PUSH1 0x1 PUSH1 0x40 SHL SUB DUP2 GT PUSH2 0x13E JUMPI PUSH2 0xC58 SWAP1 CALLDATASIZE SWAP1 PUSH1 0x4 ADD PUSH2 0x145D JUMP JUMPDEST TIMESTAMP PUSH1 0x84 CALLDATALOAD LT PUSH2 0x1385 JUMPI PUSH1 0x84 CALLDATALOAD PUSH1 0xA4 CALLDATALOAD GT ISZERO PUSH2 0x1336 JUMPI PUSH1 0xC4 CALLDATALOAD ISZERO PUSH2 0x12F1 JUMPI PUSH2 0xC80 PUSH1 0x2 SLOAD PUSH2 0x16CD JUMP JUMPDEST SWAP3 DUP4 PUSH1 0x2 SSTORE PUSH1 0x40 MLOAD SWAP3 PUSH2 0xC92 DUP5 PUSH2 0x1405 JUMP JUMPDEST DUP5 DUP5 MSTORE CALLER PUSH1 0x20 DUP6 ADD MSTORE DUP6 PUSH1 0x40 DUP6 ADD MSTORE PUSH1 0x60 DUP5 ADD MSTORE PUSH1 0x80 DUP4 ADD MSTORE PUSH1 0xA0 DUP3 ADD MSTORE PUSH1 0x84 CALLDATALOAD PUSH1 0xC0 DUP3 ADD MSTORE PUSH1 0xA4 CALLDATALOAD PUSH1 0xE0 DUP3 ADD MSTORE PUSH1 0xC4 CALLDATALOAD PUSH2 0x100 DUP3 ADD MSTORE PUSH1 0x1 PUSH2 0x120 DUP3 ADD MSTORE PUSH1 0x0 PUSH2 0x140 DUP3 ADD MSTORE PUSH1 0x0 PUSH2 0x160 DUP3 ADD MSTORE PUSH1 0x0 PUSH2 0x180 DUP3 ADD MSTORE PUSH1 0x0 PUSH2 0x1A0 DUP3 ADD MSTORE PUSH1 0x0 PUSH2 0x1C0 DUP3 ADD MSTORE DUP2 PUSH1 0x0 MSTORE PUSH1 0x3 PUSH1 0x20 MSTORE PUSH1 0x40 PUSH1 0x0 KECCAK256 SWAP1 DUP1 MLOAD DUP3 SSTORE PUSH1 0x1 DUP1 PUSH1 0xA0 SHL SUB PUSH1 0x20 DUP3 ADD MLOAD AND PUSH1 0x1 DUP4 ADD SWAP1 PUSH12 0xFFFFFFFFFFFFFFFFFFFFFFFF PUSH1 0xA0 SHL DUP3 SLOAD AND OR SWAP1 SSTORE PUSH1 0x40 DUP2 ADD MLOAD DUP1 MLOAD SWAP1 PUSH1 0x1 PUSH1 0x1 PUSH1 0x40 SHL SUB DUP3 GT PUSH2 0x106B JUMPI DUP2 SWAP1 PUSH2 0xD59 PUSH1 0x2 DUP7 ADD SLOAD PUSH2 0x14A4 JUMP JUMPDEST PUSH1 0x1F DUP2 GT PUSH2 0x129E JUMPI JUMPDEST POP PUSH1 0x20 SWAP1 PUSH1 0x1F DUP4 GT PUSH1 0x1 EQ PUSH2 0x122C JUMPI PUSH1 0x0 SWAP3 PUSH2 0x1221 JUMPI JUMPDEST POP POP DUP2 PUSH1 0x1 SHL SWAP2 PUSH1 0x0 NOT SWAP1 PUSH1 0x3 SHL SHR NOT AND OR PUSH1 0x2 DUP4 ADD SSTORE JUMPDEST PUSH1 0x60 DUP2 ADD MLOAD DUP1 MLOAD SWAP1 PUSH1 0x1 PUSH1 0x1 PUSH1 0x40 SHL SUB DUP3 GT PUSH2 0x106B JUMPI DUP2 SWAP1 PUSH2 0xDB6 PUSH1 0x3 DUP7 ADD SLOAD PUSH2 0x14A4 JUMP JUMPDEST PUSH1 0x1F DUP2 GT PUSH2 0x11CE JUMPI JUMPDEST POP PUSH1 0x20 SWAP1 PUSH1 0x1F DUP4 GT PUSH1 0x1 EQ PUSH2 0x115C JUMPI PUSH1 0x0 SWAP3 PUSH2 0x1151 JUMPI JUMPDEST POP POP DUP2 PUSH1 0x1 SHL SWAP2 PUSH1 0x0 NOT SWAP1 PUSH1 0x3 SHL SHR NOT AND OR PUSH1 0x3 DUP4 ADD SSTORE JUMPDEST PUSH1 0x80 DUP2 ADD MLOAD DUP1 MLOAD SWAP1 PUSH1 0x1 PUSH1 0x1 PUSH1 0x40 SHL SUB DUP3 GT PUSH2 0x106B JUMPI DUP2 SWAP1 PUSH2 0xE13 PUSH1 0x4 DUP7 ADD SLOAD PUSH2 0x14A4 JUMP JUMPDEST PUSH1 0x1F DUP2 GT PUSH2 0x10FE JUMPI JUMPDEST POP PUSH1 0x20 SWAP1 PUSH1 0x1F DUP4 GT PUSH1 0x1 EQ PUSH2 0x108C JUMPI PUSH1 0x0 SWAP3 PUSH2 0x1081 JUMPI JUMPDEST POP POP DUP2 PUSH1 0x1 SHL SWAP2 PUSH1 0x0 NOT SWAP1 PUSH1 0x3 SHL SHR NOT AND OR PUSH1 0x4 DUP4 ADD SSTORE JUMPDEST PUSH1 0xA0 DUP2 ADD MLOAD DUP1 MLOAD SWAP1 PUSH1 0x1 PUSH1 0x1 PUSH1 0x40 SHL SUB DUP3 GT PUSH2 0x106B JUMPI PUSH2 0xE6E PUSH1 0x5 DUP6 ADD SLOAD PUSH2 0x14A4 JUMP JUMPDEST PUSH1 0x1F DUP2 GT PUSH2 0x1024 JUMPI JUMPDEST POP PUSH1 0x20 SWAP1 PUSH1 0x1F DUP4 GT PUSH1 0x1 EQ PUSH2 0xFAE JUMPI SWAP2 DUP1 PUSH1 0xB SWAP5 SWAP3 PUSH2 0x1C0 SWAP5 PUSH1 0x0 SWAP3 PUSH2 0xFA3 JUMPI JUMPDEST POP POP DUP2 PUSH1 0x1 SHL SWAP2 PUSH1 0x0 NOT SWAP1 PUSH1 0x3 SHL SHR NOT AND OR PUSH1 0x5 DUP6 ADD SSTORE JUMPDEST PUSH1 0xC0 DUP2 ADD MLOAD PUSH1 0x6 DUP6 ADD SSTORE PUSH1 0xE0 DUP2 ADD MLOAD PUSH1 0x7 DUP6 ADD SSTORE PUSH2 0x100 DUP2 ADD MLOAD PUSH1 0x8 DUP6 ADD SSTORE PUSH2 0xF44 PUSH1 0x9 DUP6 ADD PUSH2 0x120 DUP4 ADD MLOAD ISZERO ISZERO DUP2 SLOAD PUSH2 0xFF00 PUSH2 0x140 DUP7 ADD MLOAD ISZERO ISZERO PUSH1 0x8 SHL AND SWAP1 PUSH1 0xFF PUSH3 0xFF0000 PUSH2 0x160 DUP9 ADD MLOAD ISZERO ISZERO PUSH1 0x10 SHL AND SWAP4 AND SWAP1 PUSH3 0xFFFFFF NOT AND OR OR OR DUP2 SSTORE PUSH1 0x1 DUP1 PUSH1 0xA0 SHL SUB PUSH2 0x180 DUP5 ADD MLOAD AND DUP2 SLOAD SWAP1 PUSH4 0x1000000 PUSH1 0x1 PUSH1 0xB8 SHL SUB SWAP1 PUSH1 0x18 SHL AND SWAP1 PUSH4 0x1000000 PUSH1 0x1 PUSH1 0xB8 SHL SUB NOT AND OR SWAP1 SSTORE JUMP JUMPDEST PUSH2 0x1A0 DUP2 ADD MLOAD PUSH1 0xA DUP6 ADD SSTORE ADD MLOAD SWAP2 ADD SSTORE PUSH32 0x5DB69880ECD741CB72927505845A9C757184BABEA65C98A27788100FF8FBD186 PUSH2 0xF8A PUSH1 0x40 MLOAD SWAP4 PUSH1 0x60 DUP6 MSTORE PUSH1 0x60 DUP6 ADD SWAP1 PUSH2 0x1584 JUMP JUMPDEST SWAP3 PUSH1 0x84 CALLDATALOAD PUSH1 0x20 DUP3 ADD MSTORE PUSH1 0xA4 CALLDATALOAD PUSH1 0x40 DUP3 ADD MSTORE DUP1 CALLER SWAP5 SUB SWAP1 LOG3 STOP JUMPDEST ADD MLOAD SWAP1 POP DUP9 DUP1 PUSH2 0xE98 JUMP JUMPDEST SWAP1 PUSH1 0x5 DUP6 ADD PUSH1 0x0 MSTORE PUSH1 0x20 PUSH1 0x0 KECCAK256 SWAP2 PUSH1 0x0 JUMPDEST PUSH1 0x1F NOT DUP6 AND DUP2 LT PUSH2 0x100C JUMPI POP SWAP3 PUSH1 0xB SWAP5 SWAP3 PUSH1 0x1 SWAP3 PUSH2 0x1C0 SWAP6 DUP4 PUSH1 0x1F NOT DUP2 AND LT PUSH2 0xFF3 JUMPI JUMPDEST POP POP POP DUP2 SHL ADD PUSH1 0x5 DUP6 ADD SSTORE PUSH2 0xEB0 JUMP JUMPDEST ADD MLOAD PUSH1 0x0 NOT PUSH1 0xF8 DUP5 PUSH1 0x3 SHL AND SHR NOT AND SWAP1 SSTORE DUP9 DUP1 DUP1 PUSH2 0xFE3 JUMP JUMPDEST SWAP2 SWAP3 PUSH1 0x20 PUSH1 0x1 DUP2 SWAP3 DUP7 DUP6 ADD MLOAD DUP2 SSTORE ADD SWAP5 ADD SWAP3 ADD PUSH2 0xFBF JUMP JUMPDEST PUSH1 0x5 DUP6 ADD PUSH1 0x0 MSTORE PUSH1 0x20 PUSH1 0x0 KECCAK256 PUSH1 0x1F DUP5 ADD PUSH1 0x5 SHR DUP2 ADD PUSH1 0x20 DUP6 LT PUSH2 0x1064 JUMPI JUMPDEST PUSH1 0x1F DUP4 ADD PUSH1 0x5 SHR DUP3 ADD DUP2 LT PUSH2 0x1058 JUMPI POP POP PUSH2 0xE77 JUMP JUMPDEST PUSH1 0x0 DUP2 SSTORE PUSH1 0x1 ADD PUSH2 0x1042 JUMP JUMPDEST POP DUP1 PUSH2 0x1042 JUMP JUMPDEST PUSH4 0x4E487B71 PUSH1 0xE0 SHL PUSH1 0x0 MSTORE PUSH1 0x41 PUSH1 0x4 MSTORE PUSH1 0x24 PUSH1 0x0 REVERT JUMPDEST ADD MLOAD SWAP1 POP DUP7 DUP1 PUSH2 0xE33 JUMP JUMPDEST SWAP3 POP PUSH1 0x4 DUP6 ADD PUSH1 0x0 MSTORE PUSH1 0x20 PUSH1 0x0 KECCAK256 SWAP1 PUSH1 0x0 SWAP4 JUMPDEST PUSH1 0x1F NOT DUP5 AND DUP6 LT PUSH2 0x10E3 JUMPI PUSH1 0x1 SWAP5 POP DUP4 PUSH1 0x1F NOT DUP2 AND LT PUSH2 0x10CA JUMPI JUMPDEST POP POP POP DUP2 SHL ADD PUSH1 0x4 DUP4 ADD SSTORE PUSH2 0xE4B JUMP JUMPDEST ADD MLOAD PUSH1 0x0 NOT PUSH1 0xF8 DUP5 PUSH1 0x3 SHL AND SHR NOT AND SWAP1 SSTORE DUP7 DUP1 DUP1 PUSH2 0x10BA JUMP JUMPDEST DUP2 DUP2 ADD MLOAD DUP4 SSTORE PUSH1 0x20 SWAP5 DUP6 ADD SWAP5 PUSH1 0x1 SWAP1 SWAP4 ADD SWAP3 SWAP1 SWAP2 ADD SWAP1 PUSH2 0x109F JUMP JUMPDEST SWAP1 SWAP2 POP PUSH1 0x4 DUP6 ADD PUSH1 0x0 MSTORE PUSH1 0x20 PUSH1 0x0 KECCAK256 PUSH1 0x1F DUP5 ADD PUSH1 0x5 SHR DUP2 ADD PUSH1 0x20 DUP6 LT PUSH2 0x114A JUMPI JUMPDEST SWAP1 DUP5 SWAP4 SWAP3 SWAP2 JUMPDEST PUSH1 0x1F DUP4 ADD PUSH1 0x5 SHR DUP3 ADD DUP2 LT PUSH2 0x113B JUMPI POP POP PUSH2 0xE1C JUMP JUMPDEST PUSH1 0x0 DUP2 SSTORE DUP6 SWAP5 POP PUSH1 0x1 ADD PUSH2 0x1125 JUMP JUMPDEST POP DUP1 PUSH2 0x111F JUMP JUMPDEST ADD MLOAD SWAP1 POP DUP7 DUP1 PUSH2 0xDD6 JUMP JUMPDEST SWAP3 POP PUSH1 0x3 DUP6 ADD PUSH1 0x0 MSTORE PUSH1 0x20 PUSH1 0x0 KECCAK256 SWAP1 PUSH1 0x0 SWAP4 JUMPDEST PUSH1 0x1F NOT DUP5 AND DUP6 LT PUSH2 0x11B3 JUMPI PUSH1 0x1 SWAP5 POP DUP4 PUSH1 0x1F NOT DUP2 AND LT PUSH2 0x119A JUMPI JUMPDEST POP POP POP DUP2 SHL ADD PUSH1 0x3 DUP4 ADD SSTORE PUSH2 0xDEE JUMP JUMPDEST ADD MLOAD PUSH1 0x0 NOT PUSH1 0xF8 DUP5 PUSH1 0x3 SHL AND SHR NOT AND SWAP1 SSTORE DUP7 DUP1 DUP1 PUSH2 0x118A JUMP JUMPDEST DUP2 DUP2 ADD MLOAD DUP4 SSTORE PUSH1 0x20 SWAP5 DUP6 ADD SWAP5 PUSH1 0x1 SWAP1 SWAP4 ADD SWAP3 SWAP1 SWAP2 ADD SWAP1 PUSH2 0x116F JUMP JUMPDEST SWAP1 SWAP2 POP PUSH1 0x3 DUP6 ADD PUSH1 0x0 MSTORE PUSH1 0x20 PUSH1 0x0 KECCAK256 PUSH1 0x1F DUP5 ADD PUSH1 0x5 SHR DUP2 ADD PUSH1 0x20 DUP6 LT PUSH2 0x121A JUMPI JUMPDEST SWAP1 DUP5 SWAP4 SWAP3 SWAP2 JUMPDEST PUSH1 0x1F DUP4 ADD PUSH1 0x5 SHR DUP3 ADD DUP2 LT PUSH2 0x120B JUMPI POP POP PUSH2 0xDBF JUMP JUMPDEST PUSH1 0x0 DUP2 SSTORE DUP6 SWAP5 POP PUSH1 0x1 ADD PUSH2 0x11F5 JUMP JUMPDEST POP DUP1 PUSH2 0x11EF JUMP JUMPDEST ADD MLOAD SWAP1 POP DUP7 DUP1 PUSH2 0xD79 JUMP JUMPDEST SWAP3 POP PUSH1 0x2 DUP6 ADD PUSH1 0x0 MSTORE PUSH1 0x20 PUSH1 0x0 KECCAK256 SWAP1 PUSH1 0x0 SWAP4 JUMPDEST PUSH1 0x1F NOT DUP5 AND DUP6 LT PUSH2 0x1283 JUMPI PUSH1 0x1 SWAP5 POP DUP4 PUSH1 0x1F NOT DUP2 AND LT PUSH2 0x126A JUMPI JUMPDEST POP POP POP DUP2 SHL ADD PUSH1 0x2 DUP4 ADD SSTORE PUSH2 0xD91 JUMP JUMPDEST ADD MLOAD PUSH1 0x0 NOT PUSH1 0xF8 DUP5 PUSH1 0x3 SHL AND SHR NOT AND SWAP1 SSTORE DUP7 DUP1 DUP1 PUSH2 0x125A JUMP JUMPDEST DUP2 DUP2 ADD MLOAD DUP4 SSTORE PUSH1 0x20 SWAP5 DUP6 ADD SWAP5 PUSH1 0x1 SWAP1 SWAP4 ADD SWAP3 SWAP1 SWAP2 ADD SWAP1 PUSH2 0x123F JUMP JUMPDEST SWAP1 SWAP2 POP PUSH1 0x2 DUP6 ADD PUSH1 0x0 MSTORE PUSH1 0x20 PUSH1 0x0 KECCAK256 PUSH1 0x1F DUP5 ADD PUSH1 0x5 SHR DUP2 ADD PUSH1 0x20 DUP6 LT PUSH2 0x12EA JUMPI JUMPDEST SWAP1 DUP5 SWAP4 SWAP3 SWAP2 JUMPDEST PUSH1 0x1F DUP4 ADD PUSH1 0x5 SHR DUP3 ADD DUP2 LT PUSH2 0x12DB JUMPI POP POP PUSH2 0xD62 JUMP JUMPDEST PUSH1 0x0 DUP2 SSTORE DUP6 SWAP5 POP PUSH1 0x1 ADD PUSH2 0x12C5 JUMP JUMPDEST POP DUP1 PUSH2 0x12BF JUMP JUMPDEST PUSH1 0x40 MLOAD PUSH3 0x461BCD PUSH1 0xE5 SHL DUP2 MSTORE PUSH1 0x20 PUSH1 0x4 DUP3 ADD MSTORE PUSH1 0x19 PUSH1 0x24 DUP3 ADD MSTORE PUSH32 0x42696420696E6372656D656E74206D757374206265203E203000000000000000 PUSH1 0x44 DUP3 ADD MSTORE PUSH1 0x64 SWAP1 REVERT JUMPDEST PUSH1 0x40 MLOAD PUSH3 0x461BCD PUSH1 0xE5 SHL DUP2 MSTORE PUSH1 0x20 PUSH1 0x4 DUP3 ADD MSTORE PUSH1 0x21 PUSH1 0x24 DUP3 ADD MSTORE PUSH32 0x456E642074696D65206D7573742062652061667465722073746172742074696D PUSH1 0x44 DUP3 ADD MSTORE PUSH1 0x65 PUSH1 0xF8 SHL PUSH1 0x64 DUP3 ADD MSTORE PUSH1 0x84 SWAP1 REVERT JUMPDEST PUSH1 0x40 MLOAD PUSH3 0x461BCD PUSH1 0xE5 SHL DUP2 MSTORE PUSH1 0x20 PUSH1 0x4 DUP3 ADD MSTORE PUSH1 0x1C PUSH1 0x24 DUP3 ADD MSTORE PUSH32 0x53746172742074696D65206D75737420626520696E2066757475726500000000 PUSH1 0x44 DUP3 ADD MSTORE PUSH1 0x64 SWAP1 REVERT JUMPDEST CALLVALUE PUSH2 0x13E JUMPI PUSH1 0x20 CALLDATASIZE PUSH1 0x3 NOT ADD SLT PUSH2 0x13E JUMPI PUSH1 0x4 CALLDATALOAD PUSH1 0x1 PUSH1 0x1 PUSH1 0xA0 SHL SUB DUP2 AND SWAP2 SWAP1 DUP3 SWAP1 SUB PUSH2 0x13E JUMPI PUSH1 0x20 SWAP2 PUSH1 0x0 MSTORE PUSH1 0x4 DUP3 MSTORE PUSH1 0x40 PUSH1 0x0 KECCAK256 SLOAD DUP2 MSTORE RETURN JUMPDEST PUSH2 0x1E0 DUP2 ADD SWAP1 DUP2 LT PUSH1 0x1 PUSH1 0x1 PUSH1 0x40 SHL SUB DUP3 GT OR PUSH2 0x106B JUMPI PUSH1 0x40 MSTORE JUMP JUMPDEST SWAP1 PUSH1 0x1F DUP1 NOT SWAP2 ADD AND DUP2 ADD SWAP1 DUP2 LT PUSH1 0x1 PUSH1 0x1 PUSH1 0x40 SHL SUB DUP3 GT OR PUSH2 0x106B JUMPI PUSH1 0x40 MSTORE JUMP JUMPDEST PUSH1 0x1 PUSH1 0x1 PUSH1 0x40 SHL SUB DUP2 GT PUSH2 0x106B JUMPI PUSH1 0x1F ADD PUSH1 0x1F NOT AND PUSH1 0x20 ADD SWAP1 JUMP JUMPDEST DUP2 PUSH1 0x1F DUP3 ADD SLT ISZERO PUSH2 0x13E JUMPI DUP1 CALLDATALOAD SWAP1 PUSH2 0x1474 DUP3 PUSH2 0x1442 JUMP JUMPDEST SWAP3 PUSH2 0x1482 PUSH1 0x40 MLOAD SWAP5 DUP6 PUSH2 0x1421 JUMP JUMPDEST DUP3 DUP5 MSTORE PUSH1 0x20 DUP4 DUP4 ADD ADD GT PUSH2 0x13E JUMPI DUP2 PUSH1 0x0 SWAP3 PUSH1 0x20 DUP1 SWAP4 ADD DUP4 DUP7 ADD CALLDATACOPY DUP4 ADD ADD MSTORE SWAP1 JUMP JUMPDEST SWAP1 PUSH1 0x1 DUP3 DUP2 SHR SWAP3 AND DUP1 ISZERO PUSH2 0x14D4 JUMPI JUMPDEST PUSH1 0x20 DUP4 LT EQ PUSH2 0x14BE JUMPI JUMP JUMPDEST PUSH4 0x4E487B71 PUSH1 0xE0 SHL PUSH1 0x0 MSTORE PUSH1 0x22 PUSH1 0x4 MSTORE PUSH1 0x24 PUSH1 0x0 REVERT JUMPDEST SWAP2 PUSH1 0x7F AND SWAP2 PUSH2 0x14B3 JUMP JUMPDEST SWAP1 PUSH1 0x40 MLOAD SWAP2 DUP3 PUSH1 0x0 DUP3 SLOAD SWAP3 PUSH2 0x14F2 DUP5 PUSH2 0x14A4 JUMP JUMPDEST SWAP1 DUP2 DUP5 MSTORE PUSH1 0x1 SWAP5 DUP6 DUP2 AND SWAP1 DUP2 PUSH1 0x0 EQ PUSH2 0x1561 JUMPI POP PUSH1 0x1 EQ PUSH2 0x151E JUMPI JUMPDEST POP POP PUSH2 0x151C SWAP3 POP SUB DUP4 PUSH2 0x1421 JUMP JUMPDEST JUMP JUMPDEST SWAP1 SWAP4 SWAP2 POP PUSH1 0x0 MSTORE PUSH1 0x20 SWAP1 DUP2 PUSH1 0x0 KECCAK256 SWAP4 PUSH1 0x0 SWAP2 JUMPDEST DUP2 DUP4 LT PUSH2 0x1549 JUMPI POP POP PUSH2 0x151C SWAP4 POP DUP3 ADD ADD CODESIZE DUP1 PUSH2 0x150E JUMP JUMPDEST DUP6 SLOAD DUP9 DUP5 ADD DUP6 ADD MSTORE SWAP5 DUP6 ADD SWAP5 DUP8 SWAP5 POP SWAP2 DUP4 ADD SWAP2 PUSH2 0x1531 JUMP JUMPDEST SWAP2 POP POP PUSH2 0x151C SWAP5 POP PUSH1 0x20 SWAP3 POP PUSH1 0xFF NOT AND DUP3 DUP5 ADD MSTORE ISZERO ISZERO PUSH1 0x5 SHL DUP3 ADD ADD CODESIZE DUP1 PUSH2 0x150E JUMP JUMPDEST SWAP2 SWAP1 DUP3 MLOAD SWAP3 DUP4 DUP3 MSTORE PUSH1 0x0 JUMPDEST DUP5 DUP2 LT PUSH2 0x15B0 JUMPI POP POP DUP3 PUSH1 0x0 PUSH1 0x20 DUP1 SWAP5 SWAP6 DUP5 ADD ADD MSTORE PUSH1 0x1F DUP1 NOT SWAP2 ADD AND ADD ADD SWAP1 JUMP JUMPDEST PUSH1 0x20 DUP2 DUP4 ADD DUP2 ADD MLOAD DUP5 DUP4 ADD DUP3 ADD MSTORE ADD PUSH2 0x158F JUMP JUMPDEST SWAP1 DUP2 MLOAD DUP2 MSTORE PUSH1 0x1 DUP1 PUSH1 0xA0 SHL SUB SWAP2 DUP3 PUSH1 0x20 DUP3 ADD MLOAD AND PUSH1 0x20 DUP4 ADD MSTORE PUSH2 0x1635 PUSH2 0x1623 PUSH2 0x1611 PUSH2 0x15FF PUSH1 0x40 DUP6 ADD MLOAD PUSH2 0x1E0 DUP1 PUSH1 0x40 DUP10 ADD MSTORE DUP8 ADD SWAP1 PUSH2 0x1584 JUMP JUMPDEST PUSH1 0x60 DUP6 ADD MLOAD DUP7 DUP3 SUB PUSH1 0x60 DUP9 ADD MSTORE PUSH2 0x1584 JUMP JUMPDEST PUSH1 0x80 DUP5 ADD MLOAD DUP6 DUP3 SUB PUSH1 0x80 DUP8 ADD MSTORE PUSH2 0x1584 JUMP JUMPDEST PUSH1 0xA0 DUP4 ADD MLOAD DUP5 DUP3 SUB PUSH1 0xA0 DUP7 ADD MSTORE PUSH2 0x1584 JUMP JUMPDEST SWAP3 PUSH1 0xC0 DUP3 ADD MLOAD PUSH1 0xC0 DUP5 ADD MSTORE PUSH1 0xE0 DUP3 ADD MLOAD PUSH1 0xE0 DUP5 ADD MSTORE PUSH2 0x100 DUP1 DUP4 ADD MLOAD SWAP1 DUP5 ADD MSTORE PUSH2 0x120 DUP1 DUP4 ADD MLOAD ISZERO ISZERO SWAP1 DUP5 ADD MSTORE PUSH2 0x140 DUP1 DUP4 ADD MLOAD ISZERO ISZERO SWAP1 DUP5 ADD MSTORE PUSH2 0x160 DUP1 DUP4 ADD MLOAD ISZERO ISZERO SWAP1 DUP5 ADD MSTORE PUSH2 0x180 SWAP1 DUP2 DUP4 ADD MLOAD AND SWAP1 DUP4 ADD MSTORE PUSH2 0x1A0 DUP1 DUP3 ADD MLOAD SWAP1 DUP4 ADD MSTORE PUSH2 0x1C0 DUP1 SWAP2 ADD MLOAD SWAP2 ADD MSTORE SWAP1 JUMP JUMPDEST PUSH1 0x1 SLOAD PUSH1 0x1 PUSH1 0x1 PUSH1 0xA0 SHL SUB AND CALLER SUB PUSH2 0x16B5 JUMPI JUMP JUMPDEST PUSH1 0x40 MLOAD PUSH4 0x118CDAA7 PUSH1 0xE0 SHL DUP2 MSTORE CALLER PUSH1 0x4 DUP3 ADD MSTORE PUSH1 0x24 SWAP1 REVERT JUMPDEST PUSH1 0x0 NOT DUP2 EQ PUSH2 0x16DC JUMPI PUSH1 0x1 ADD SWAP1 JUMP JUMPDEST PUSH4 0x4E487B71 PUSH1 0xE0 SHL PUSH1 0x0 MSTORE PUSH1 0x11 PUSH1 0x4 MSTORE PUSH1 0x24 PUSH1 0x0 REVERT JUMPDEST ISZERO PUSH2 0x16F9 JUMPI JUMP JUMPDEST PUSH1 0x40 MLOAD PUSH3 0x461BCD PUSH1 0xE5 SHL DUP2 MSTORE PUSH1 0x20 PUSH1 0x4 DUP3 ADD MSTORE PUSH1 0x12 PUSH1 0x24 DUP3 ADD MSTORE PUSH18 0x41756374696F6E206E6F7420616374697665 PUSH1 0x70 SHL PUSH1 0x44 DUP3 ADD MSTORE PUSH1 0x64 SWAP1 REVERT JUMPDEST ISZERO PUSH2 0x173A JUMPI JUMP JUMPDEST PUSH1 0x40 MLOAD PUSH3 0x461BCD PUSH1 0xE5 SHL DUP2 MSTORE PUSH1 0x20 PUSH1 0x4 DUP3 ADD MSTORE PUSH1 0xD PUSH1 0x24 DUP3 ADD MSTORE PUSH13 0x105D58DD1A5BDB88195B991959 PUSH1 0x9A SHL PUSH1 0x44 DUP3 ADD MSTORE PUSH1 0x64 SWAP1 REVERT JUMPDEST SWAP2 SWAP1 DUP3 ADD DUP1 SWAP3 GT PUSH2 0x16DC JUMPI JUMP JUMPDEST PUSH1 0x2 PUSH1 0x0 SLOAD EQ PUSH2 0x178D JUMPI PUSH1 0x2 PUSH1 0x0 SSTORE JUMP JUMPDEST PUSH1 0x40 MLOAD PUSH4 0x3EE5AEB5 PUSH1 0xE0 SHL DUP2 MSTORE PUSH1 0x4 SWAP1 REVERT JUMPDEST RETURNDATASIZE ISZERO PUSH2 0x17CA JUMPI RETURNDATASIZE SWAP1 PUSH2 0x17B0 DUP3 PUSH2 0x1442 JUMP JUMPDEST SWAP2 PUSH2 0x17BE PUSH1 0x40 MLOAD SWAP4 DUP5 PUSH2 0x1421 JUMP JUMPDEST DUP3 MSTORE RETURNDATASIZE PUSH1 0x0 PUSH1 0x20 DUP5 ADD RETURNDATACOPY JUMP JUMPDEST PUSH1 0x60 SWAP1 JUMP JUMPDEST SWAP2 SWAP1 DUP3 SUB SWAP2 DUP3 GT PUSH2 0x16DC JUMPI JUMP JUMPDEST PUSH1 0x1 PUSH1 0x1 PUSH1 0x40 SHL SUB DUP2 GT PUSH2 0x106B JUMPI PUSH1 0x5 SHL PUSH1 0x20 ADD SWAP1 JUMP JUMPDEST PUSH1 0x40 MLOAD SWAP1 PUSH2 0x1800 DUP3 PUSH2 0x1405 JUMP JUMPDEST DUP2 PUSH2 0x1C0 PUSH1 0x0 SWAP2 DUP3 DUP2 MSTORE DUP3 PUSH1 0x20 DUP3 ADD MSTORE PUSH1 0x60 PUSH1 0x40 DUP3 ADD MSTORE PUSH1 0x60 DUP1 DUP3 ADD MSTORE PUSH1 0x60 PUSH1 0x80 DUP3 ADD MSTORE PUSH1 0x60 PUSH1 0xA0 DUP3 ADD MSTORE DUP3 PUSH1 0xC0 DUP3 ADD MSTORE DUP3 PUSH1 0xE0 DUP3 ADD MSTORE DUP3 PUSH2 0x100 DUP3 ADD MSTORE DUP3 PUSH2 0x120 DUP3 ADD MSTORE DUP3 PUSH2 0x140 DUP3 ADD MSTORE DUP3 PUSH2 0x160 DUP3 ADD MSTORE DUP3 PUSH2 0x180 DUP3 ADD MSTORE DUP3 PUSH2 0x1A0 DUP3 ADD MSTORE ADD MSTORE JUMP JUMPDEST DUP1 MLOAD DUP3 LT ISZERO PUSH2 0x1879 JUMPI PUSH1 0x20 SWAP2 PUSH1 0x5 SHL ADD ADD SWAP1 JUMP JUMPDEST PUSH4 0x4E487B71 PUSH1 0xE0 SHL PUSH1 0x0 MSTORE PUSH1 0x32 PUSH1 0x4 MSTORE PUSH1 0x24 PUSH1 0x0 REVERT JUMPDEST SWAP1 PUSH1 0x2 SWAP1 DUP2 SLOAD SWAP1 DUP2 DUP5 LT ISZERO PUSH2 0x1A3C JUMPI PUSH2 0x18BC SWAP2 PUSH2 0x18AD DUP6 SWAP3 DUP4 PUSH2 0x176F JUMP JUMPDEST SWAP1 DUP1 DUP3 GT PUSH2 0x1A34 JUMPI JUMPDEST POP PUSH2 0x17CF JUMP JUMPDEST SWAP1 PUSH2 0x18C6 DUP3 PUSH2 0x17DC JUMP JUMPDEST SWAP3 PUSH1 0x40 SWAP1 PUSH2 0x18D6 DUP3 MLOAD SWAP6 DUP7 PUSH2 0x1421 JUMP JUMPDEST DUP4 DUP6 MSTORE PUSH1 0x1F NOT PUSH2 0x18E5 DUP6 PUSH2 0x17DC JUMP JUMPDEST ADD PUSH1 0x0 JUMPDEST DUP2 DUP2 LT PUSH2 0x1A1D JUMPI POP POP PUSH1 0x0 JUMPDEST DUP5 DUP2 LT PUSH2 0x1904 JUMPI POP POP POP POP POP SWAP1 JUMP JUMPDEST PUSH2 0x190E DUP2 DUP4 PUSH2 0x176F JUMP JUMPDEST SWAP1 PUSH1 0x1 DUP1 DUP4 ADD DUP1 SWAP4 GT PUSH2 0x16DC JUMPI PUSH2 0x1A18 SWAP3 PUSH1 0x0 MSTORE PUSH1 0xB PUSH1 0x3 PUSH1 0x20 SWAP3 DUP2 DUP5 MSTORE PUSH2 0x196B DUP9 PUSH1 0x0 KECCAK256 SWAP3 DUP10 MLOAD SWAP6 PUSH2 0x1940 DUP8 PUSH2 0x1405 JUMP JUMPDEST DUP5 SLOAD DUP8 MSTORE PUSH1 0x1 DUP1 PUSH1 0xA0 SHL SUB DUP1 SWAP5 DUP7 ADD SLOAD AND SWAP1 DUP8 ADD MSTORE PUSH2 0x1960 DUP12 DUP6 ADD PUSH2 0x14DE JUMP JUMPDEST DUP11 DUP8 ADD MSTORE DUP4 ADD PUSH2 0x14DE JUMP JUMPDEST PUSH1 0x60 DUP6 ADD MSTORE PUSH2 0x197C PUSH1 0x4 DUP4 ADD PUSH2 0x14DE JUMP JUMPDEST PUSH1 0x80 DUP6 ADD MSTORE PUSH2 0x198D PUSH1 0x5 DUP4 ADD PUSH2 0x14DE JUMP JUMPDEST PUSH1 0xA0 DUP6 ADD MSTORE PUSH1 0x6 DUP3 ADD SLOAD PUSH1 0xC0 DUP6 ADD MSTORE PUSH1 0x7 DUP3 ADD SLOAD PUSH1 0xE0 DUP6 ADD MSTORE PUSH1 0x8 DUP1 DUP4 ADD SLOAD PUSH2 0x100 DUP7 ADD MSTORE PUSH1 0x9 DUP4 ADD SLOAD DUP1 SWAP2 PUSH1 0xFF SWAP2 DUP3 SWAP2 DUP3 DUP3 AND ISZERO ISZERO PUSH2 0x120 DUP11 ADD MSTORE SHR AND ISZERO ISZERO PUSH2 0x140 DUP8 ADD MSTORE DUP2 PUSH1 0x10 SHR AND ISZERO ISZERO PUSH2 0x160 DUP7 ADD MSTORE PUSH1 0x18 SHR AND PUSH2 0x180 DUP5 ADD MSTORE PUSH1 0xA DUP2 ADD SLOAD PUSH2 0x1A0 DUP5 ADD MSTORE ADD SLOAD PUSH2 0x1C0 DUP3 ADD MSTORE PUSH2 0x1A07 DUP3 DUP10 PUSH2 0x1865 JUMP JUMPDEST MSTORE PUSH2 0x1A12 DUP2 DUP9 PUSH2 0x1865 JUMP JUMPDEST POP PUSH2 0x16CD JUMP JUMPDEST PUSH2 0x18F5 JUMP JUMPDEST PUSH1 0x20 SWAP1 PUSH2 0x1A28 PUSH2 0x17F3 JUMP JUMPDEST DUP3 DUP3 DUP11 ADD ADD MSTORE ADD PUSH2 0x18E9 JUMP JUMPDEST SWAP1 POP CODESIZE PUSH2 0x18B6 JUMP JUMPDEST POP POP POP POP PUSH1 0x40 MLOAD PUSH1 0x20 DUP2 ADD DUP2 DUP2 LT PUSH1 0x1 PUSH1 0x1 PUSH1 0x40 SHL SUB DUP3 GT OR PUSH2 0x106B JUMPI PUSH1 0x40 MSTORE PUSH1 0x0 DUP2 MSTORE SWAP1 JUMP INVALID LOG2 PUSH5 0x6970667358 0x22 SLT KECCAK256 0xCA DUP1 0xF9 TIMESTAMP GT STATICCALL 0x4A JUMPI DUP3 PUSH28 0xA64C2F898472E2D7F624750EBC0A1BB051EB17B4706064736F6C6343 STOP ADDMOD EQ STOP CALLER "},"methodIdentifiers":{"auctionIdCounter()":"de0794ef","auctions(uint256)":"571a26a0","cancelAuction(uint256)":"96b5a755","createAuction(string,string,string,string,uint256,uint256,uint256)":"30eb8de4","endAuction(uint256)":"b9a2de3a","getAuction(uint256)":"78bd7935","getAuctions(uint256,uint256)":"ceb6a22f","owner()":"8da5cb5b","pendingReturns(address)":"26b387bb","placeBid(uint256)":"9979ef45","renounceOwnership()":"715018a6","transferOwnership(address)":"f2fde38b","withdraw()":"3ccfd60b"}}}}}