{
  "_format": "hh-sol-artifact-1",
  "contractName": "AuctionMarketplace",
  "sourceName": "contracts/AuctionMarketplace.sol",
  "abi": [
    {
      "inputs": [],
      "stateMutability": "nonpayable",
      "type": "constructor"
    },
    {
      "inputs": [
        {
          "internalType": "address",
          "name": "owner",
          "type": "address"
        }
      ],
      "name": "OwnableInvalidOwner",
      "type": "error"
    },
    {
      "inputs": [
        {
          "internalType": "address",
          "name": "account",
          "type": "address"
        }
      ],
      "name": "OwnableUnauthorizedAccount",
      "type": "error"
    },
    {
      "inputs": [],
      "name": "ReentrancyGuardReentrantCall",
      "type": "error"
    },
    {
      "anonymous": false,
      "inputs": [
        {
          "indexed": true,
          "internalType": "uint256",
          "name": "auctionId",
          "type": "uint256"
        }
      ],
      "name": "AuctionCancelled",
      "type": "event"
    },
    {
      "anonymous": false,
      "inputs": [
        {
          "indexed": true,
          "internalType": "uint256",
          "name": "auctionId",
          "type": "uint256"
        },
        {
          "indexed": true,
          "internalType": "address",
          "name": "auctioneer",
          "type": "address"
        },
        {
          "indexed": false,
          "internalType": "string",
          "name": "title",
          "type": "string"
        },
        {
          "indexed": false,
          "internalType": "uint256",
          "name": "startTime",
          "type": "uint256"
        },
        {
          "indexed": false,
          "internalType": "uint256",
          "name": "endTime",
          "type": "uint256"
        }
      ],
      "name": "AuctionCreated",
      "type": "event"
    },
    {
      "anonymous": false,
      "inputs": [
        {
          "indexed": true,
          "internalType": "uint256",
          "name": "auctionId",
          "type": "uint256"
        },
        {
          "indexed": true,
          "internalType": "address",
          "name": "winner",
          "type": "address"
        },
        {
          "indexed": false,
          "internalType": "uint256",
          "name": "amount",
          "type": "uint256"
        }
      ],
      "name": "AuctionEnded",
      "type": "event"
    },
    {
      "anonymous": false,
      "inputs": [
        {
          "indexed": true,
          "internalType": "uint256",
          "name": "auctionId",
          "type": "uint256"
        },
        {
          "indexed": true,
          "internalType": "address",
          "name": "bidder",
          "type": "address"
        },
        {
          "indexed": false,
          "internalType": "uint256",
          "name": "amount",
          "type": "uint256"
        },
        {
          "indexed": false,
          "internalType": "uint256",
          "name": "highestPayableBid",
          "type": "uint256"
        }
      ],
      "name": "BidPlaced",
      "type": "event"
    },
    {
      "anonymous": false,
      "inputs": [
        {
          "indexed": true,
          "internalType": "address",
          "name": "previousOwner",
          "type": "address"
        },
        {
          "indexed": true,
          "internalType": "address",
          "name": "newOwner",
          "type": "address"
        }
      ],
      "name": "OwnershipTransferred",
      "type": "event"
    },
    {
      "anonymous": false,
      "inputs": [
        {
          "indexed": true,
          "internalType": "address",
          "name": "bidder",
          "type": "address"
        },
        {
          "indexed": false,
          "internalType": "uint256",
          "name": "amount",
          "type": "uint256"
        }
      ],
      "name": "Withdrawal",
      "type": "event"
    },
    {
      "inputs": [],
      "name": "auctionIdCounter",
      "outputs": [
        {
          "internalType": "uint256",
          "name": "",
          "type": "uint256"
        }
      ],
      "stateMutability": "view",
      "type": "function"
    },
    {
      "inputs": [
        {
          "internalType": "uint256",
          "name": "",
          "type": "uint256"
        }
      ],
      "name": "auctions",
      "outputs": [
        {
          "internalType": "uint256",
          "name": "id",
          "type": "uint256"
        },
        {
          "internalType": "address payable",
          "name": "auctioneer",
          "type": "address"
        },
        {
          "internalType": "string",
          "name": "title",
          "type": "string"
        },
        {
          "internalType": "string",
          "name": "description",
          "type": "string"
        },
        {
          "internalType": "string",
          "name": "imageHash",
          "type": "string"
        },
        {
          "internalType": "string",
          "name": "category",
          "type": "string"
        },
        {
          "internalType": "uint256",
          "name": "startTime",
          "type": "uint256"
        },
        {
          "internalType": "uint256",
          "name": "endTime",
          "type": "uint256"
        },
        {
          "internalType": "uint256",
          "name": "minBidIncrement",
          "type": "uint256"
        },
        {
          "internalType": "bool",
          "name": "active",
          "type": "bool"
        },
        {
          "internalType": "bool",
          "name": "ended",
          "type": "bool"
        },
        {
          "internalType": "bool",
          "name": "cancelled",
          "type": "bool"
        },
        {
          "internalType": "address payable",
          "name": "highestBidder",
          "type": "address"
        },
        {
          "internalType": "uint256",
          "name": "highestBid",
          "type": "uint256"
        },
        {
          "internalType": "uint256",
          "name": "highestPayableBid",
          "type": "uint256"
        }
      ],
      "stateMutability": "view",
      "type": "function"
    },
    {
      "inputs": [
        {
          "internalType": "uint256",
          "name": "_auctionId",
          "type": "uint256"
        }
      ],
      "name": "cancelAuction",
      "outputs": [],
      "stateMutability": "nonpayable",
      "type": "function"
    },
    {
      "inputs": [
        {
          "internalType": "string",
          "name": "_title",
          "type": "string"
        },
        {
          "internalType": "string",
          "name": "_description",
          "type": "string"
        },
        {
          "internalType": "string",
          "name": "_imageHash",
          "type": "string"
        },
        {
          "internalType": "string",
          "name": "_category",
          "type": "string"
        },
        {
          "internalType": "uint256",
          "name": "_startTime",
          "type": "uint256"
        },
        {
          "internalType": "uint256",
          "name": "_endTime",
          "type": "uint256"
        },
        {
          "internalType": "uint256",
          "name": "_minBidIncrement",
          "type": "uint256"
        }
      ],
      "name": "createAuction",
      "outputs": [],
      "stateMutability": "nonpayable",
      "type": "function"
    },
    {
      "inputs": [
        {
          "internalType": "uint256",
          "name": "_auctionId",
          "type": "uint256"
        }
      ],
      "name": "endAuction",
      "outputs": [],
      "stateMutability": "nonpayable",
      "type": "function"
    },
    {
      "inputs": [
        {
          "internalType": "uint256",
          "name": "_auctionId",
          "type": "uint256"
        }
      ],
      "name": "getAuction",
      "outputs": [
        {
          "components": [
            {
              "internalType": "uint256",
              "name": "id",
              "type": "uint256"
            },
            {
              "internalType": "address payable",
              "name": "auctioneer",
              "type": "address"
            },
            {
              "internalType": "string",
              "name": "title",
              "type": "string"
            },
            {
              "internalType": "string",
              "name": "description",
              "type": "string"
            },
            {
              "internalType": "string",
              "name": "imageHash",
              "type": "string"
            },
            {
              "internalType": "string",
              "name": "category",
              "type": "string"
            },
            {
              "internalType": "uint256",
              "name": "startTime",
              "type": "uint256"
            },
            {
              "internalType": "uint256",
              "name": "endTime",
              "type": "uint256"
            },
            {
              "internalType": "uint256",
              "name": "minBidIncrement",
              "type": "uint256"
            },
            {
              "internalType": "bool",
              "name": "active",
              "type": "bool"
            },
            {
              "internalType": "bool",
              "name": "ended",
              "type": "bool"
            },
            {
              "internalType": "bool",
              "name": "cancelled",
              "type": "bool"
            },
            {
              "internalType": "address payable",
              "name": "highestBidder",
              "type": "address"
            },
            {
              "internalType": "uint256",
              "name": "highestBid",
              "type": "uint256"
            },
            {
              "internalType": "uint256",
              "name": "highestPayableBid",
              "type": "uint256"
            }
          ],
          "internalType": "struct AuctionMarketplace.Auction",
          "name": "",
          "type": "tuple"
        }
      ],
      "stateMutability": "view",
      "type": "function"
    },
    {
      "inputs": [
        {
          "internalType": "uint256",
          "name": "offset",
          "type": "uint256"
        },
        {
          "internalType": "uint256",
          "name": "limit",
          "type": "uint256"
        }
      ],
      "name": "getAuctions",
      "outputs": [
        {
          "components": [
            {
              "internalType": "uint256",
              "name": "id",
              "type": "uint256"
            },
            {
              "internalType": "address payable",
              "name": "auctioneer",
              "type": "address"
            },
            {
              "internalType": "string",
              "name": "title",
              "type": "string"
            },
            {
              "internalType": "string",
              "name": "description",
              "type": "string"
            },
            {
              "internalType": "string",
              "name": "imageHash",
              "type": "string"
            },
            {
              "internalType": "string",
              "name": "category",
              "type": "string"
            },
            {
              "internalType": "uint256",
              "name": "startTime",
              "type": "uint256"
            },
            {
              "internalType": "uint256",
              "name": "endTime",
              "type": "uint256"
            },
            {
              "internalType": "uint256",
              "name": "minBidIncrement",
              "type": "uint256"
            },
            {
              "internalType": "bool",
              "name": "active",
              "type": "bool"
            },
            {
              "internalType": "bool",
              "name": "ended",
              "type": "bool"
            },
            {
              "internalType": "bool",
              "name": "cancelled",
              "type": "bool"
            },
            {
              "internalType": "address payable",
              "name": "highestBidder",
              "type": "address"
            },
            {
              "internalType": "uint256",
              "name": "highestBid",
              "type": "uint256"
            },
            {
              "internalType": "uint256",
              "name": "highestPayableBid",
              "type": "uint256"
            }
          ],
          "internalType": "struct AuctionMarketplace.Auction[]",
          "name": "",
          "type": "tuple[]"
        }
      ],
      "stateMutability": "view",
      "type": "function"
    },
    {
      "inputs": [],
      "name": "owner",
      "outputs": [
        {
          "internalType": "address",
          "name": "",
          "type": "address"
        }
      ],
      "stateMutability": "view",
      "type": "function"
    },
    {
      "inputs": [
        {
          "internalType": "address",
          "name": "",
          "type": "address"
        }
      ],
      "name": "pendingReturns",
      "outputs": [
        {
          "internalType": "uint256",
          "name": "",
          "type": "uint256"
        }
      ],
      "stateMutability": "view",
      "type": "function"
    },
    {
      "inputs": [
        {
          "internalType": "uint256",
          "name": "_auctionId",
          "type": "uint256"
        }
      ],
      "name": "placeBid",
      "outputs": [],
      "stateMutability": "payable",
      "type": "function"
    },
    {
      "inputs": [],
      "name": "renounceOwnership",
      "outputs": [],
      "stateMutability": "nonpayable",
      "type": "function"
    },
    {
      "inputs": [
        {
          "internalType": "address",
          "name": "newOwner",
          "type": "address"
        }
      ],
      "name": "transferOwnership",
      "outputs": [],
      "stateMutability": "nonpayable",
      "type": "function"
    },
    {
      "inputs": [],
      "name": "withdraw",
      "outputs": [],
      "stateMutability": "nonpayable",
      "type": "function"
    }
  ],
  "bytecode": "0x6080806040523461007f57600160005533156100695760018054336001600160a01b03198216811790925560405191906001600160a01b03167f8be0079c531659141344cd1fd0a4f28419497f9722a3daafe3b4186f6b6457e0600080a3611a9990816100858239f35b631e4fbdf760e01b815260006004820152602490fd5b600080fdfe608080604052600436101561001357600080fd5b60003560e01c90816326b387bb146113ca5750806330eb8de414610bca5780633ccfd60b14610b09578063571a26a0146109d3578063715018a61461097657806378bd79351461085a5780638da5cb5b1461083157806396b5a7551461071e5780639979ef45146103ba578063b9a2de3a146101e1578063ceb6a22f14610161578063de0794ef146101435763f2fde38b146100ae57600080fd5b3461013e57602036600319011261013e576004356001600160a01b038181169182900361013e576100dd6116a1565b811561012557600154826bffffffffffffffffffffffff60a01b821617600155167f8be0079c531659141344cd1fd0a4f28419497f9722a3daafe3b4186f6b6457e0600080a3005b604051631e4fbdf760e01b815260006004820152602490fd5b600080fd5b3461013e57600036600319011261013e576020600254604051908152f35b3461013e57604036600319011261013e5761018060243560043561188f565b60405160209182820192808352815180945260408301938160408260051b8601019301916000955b8287106101b55785850386f35b9091929382806101d1600193603f198a820301865288516115c4565b96019201960195929190926101a8565b3461013e5760208060031936011261013e576004356101fe61177c565b806000526003825260406000209160098301805461021e60ff82166116f2565b60ff8160081c1661037d57600785015442106103405761ffff1916610100178082556001600160a01b03919060181c821680610292575b507fd2aa34a4fdbbc6dff6a3e56f46e0f3ae2a31d7785ff3487aa5c95c642acea5019291600b915460181c16940154604051908152a36001600055005b600080808093600b8a0154906102ac82600a8d01546117cf565b9081610322575b50508660018b0154165af16102c661179f565b50156102d25785610255565b60405162461bcd60e51b815260048101849052602260248201527f4661696c656420746f2073656e6420457468657220746f2061756374696f6e6560448201526132b960f11b6064820152608490fd5b8352600489526103376040842091825461176f565b90558a806102b3565b60405162461bcd60e51b8152600481018490526015602482015274105d58dd1a5bdb881b9bdd081e595d08195b991959605a1b6044820152606490fd5b60405162461bcd60e51b8152600481018490526015602482015274105d58dd1a5bdb88185b1c9958591e48195b991959605a1b6044820152606490fd5b60208060031936011261013e576004356103d261177c565b80600052600382526040600020600981019081546103f260ff82166116f2565b61040260ff8260081c1615611733565b60ff8160101c166106e557600682015442106106aa5760078201544210156106735760018201546001600160a01b039190821633146106365760181c8116610503575060088101805434106104d05782546301000000600160b81b0319163360181b6301000000600160b81b031617909255600b9134600a830155548282019080825534106104c7575b505b0154604051923484528301527f51db8e23b3f4479b162fd48823b8402895442b8f6cfd94f66239391881ec7b6f60403393a36001600055005b3490558461048c565b60405162461bcd60e51b815260206004820152600b60248201526a42696420746f6f206c6f7760a81b6044820152606490fd5b91600b820192835434119081156105e757600a8401918254341160001461059a57509181600b9593610583935490835460181c166000526004895261054e604060002091825461176f565b9055805482546301000000600160b81b0319163360181b6301000000600160b81b03161790925534905560088401549061176f565b90348211610592575b5561048e565b34915061058c565b91925050156104d057600b92336000526004865260406000206105be34825461176f565b90556105ce60088401543461176f565b91548083116105df575b505561048e565b9150866105d8565b60405162461bcd60e51b815260048101889052602160248201527f42696420746f6f206c6f77202862656c6f772063757272656e742070726963656044820152602960f81b6064820152608490fd5b60405162461bcd60e51b8152600481018790526015602482015274105d58dd1a5bdb99595c8818d85b9b9bdd08189a59605a1b6044820152606490fd5b60405162461bcd60e51b815260048101869052600f60248201526e105d58dd1a5bdb88195e1c1a5c9959608a1b6044820152606490fd5b60405162461bcd60e51b8152600481018690526013602482015272105d58dd1a5bdb881b9bdd081cdd185c9d1959606a1b6044820152606490fd5b60405162461bcd60e51b8152600481018690526011602482015270105d58dd1a5bdb8818d85b98d95b1b1959607a1b6044820152606490fd5b3461013e57602036600319011261013e5760043561073a61177c565b600081815260036020526040902060018101546001600160a01b0390811633036107ec576009820162010000815461077460ff82166116f2565b61078460ff8260081c1615611733565b62ff00ff19161780915560181c1690816107c6575b827f2809c7e17bf978fbc7194c0a694b638c4215e9140cacc6c38ca36010b45697df600080a26001600055005b600a01549060005260046020526107e3604060002091825461176f565b90558180610799565b60405162461bcd60e51b815260206004820152601a60248201527f4f6e6c792061756374696f6e6565722063616e2063616e63656c0000000000006044820152606490fd5b3461013e57600036600319011261013e576001546040516001600160a01b039091168152602090f35b3461013e57602036600319011261013e576108736117f3565b5060043560005260036020526109726040600020600b6040519161089683611405565b8054835260018101546001600160a01b0390811660208501526108bb600283016114de565b60408501526108cc600383016114de565b60608501526108dd600483016114de565b60808501526108ee600583016114de565b60a0850152600682015460c0850152600782015460e08501526008820154610100850152600982015460ff8116151561012086015260ff8160081c16151561014086015260ff8160101c16151561016086015260181c16610180840152600a8101546101a084015201546101c08201526040519182916020835260208301906115c4565b0390f35b3461013e57600036600319011261013e5761098f6116a1565b600180546001600160a01b031981169091556000906001600160a01b03167f8be0079c531659141344cd1fd0a4f28419497f9722a3daafe3b4186f6b6457e08280a3005b3461013e57602036600319011261013e576004356000908152600360205260409020805460018201546001600160a01b0390811692610a14600282016114de565b90610a21600382016114de565b92610a2e600483016114de565b93610a3b600584016114de565b94600684015495600785015490600886015492600987015494600a88015497600b0154986040519c8d9c8d5260208d01528b6101e06040819201528c01610a8191611584565b8b810360608d0152610a9291611584565b8a810360808c0152610aa391611584565b89810360a08b0152610ab491611584565b9660c089015260e088015261010087015260ff811615156101208701528060081c60ff1615156101408701528060101c60ff16151561016087015260181c166101808501526101a08401526101c08301520390f35b3461013e57600036600319011261013e57610b2261177c565b336000526004602052604060002080549081610b40575b6001600055005b60009055600080808084335af1610b5561179f565b5015610b8e576040519081527f7fcf532c15f0a6db0bd6d0e038bea71d30d808c7d98cb3bf7268a95bf5081b6560203392a28080610b39565b60405162461bcd60e51b81526020600482015260146024820152732330b4b632b2103a379039b2b7321022ba3432b960611b6044820152606490fd5b3461013e5760e036600319011261013e576004356001600160401b03811161013e57610bfa90369060040161145d565b6024356001600160401b03811161013e57610c1990369060040161145d565b6044356001600160401b03811161013e57610c3890369060040161145d565b906064356001600160401b03811161013e57610c5890369060040161145d565b42608435106113855760843560a43511156113365760c435156112f157610c806002546116cd565b928360025560405192610c9284611405565b8484523360208501528560408501526060840152608083015260a082015260843560c082015260a43560e082015260c435610100820152600161012082015260006101408201526000610160820152600061018082015260006101a082015260006101c08201528160005260036020526040600020908051825560018060a01b0360208201511660018301906bffffffffffffffffffffffff60a01b82541617905560408101518051906001600160401b03821161106b578190610d5960028601546114a4565b601f811161129e575b50602090601f831160011461122c57600092611221575b50508160011b916000199060031b1c19161760028301555b60608101518051906001600160401b03821161106b578190610db660038601546114a4565b601f81116111ce575b50602090601f831160011461115c57600092611151575b50508160011b916000199060031b1c19161760038301555b60808101518051906001600160401b03821161106b578190610e1360048601546114a4565b601f81116110fe575b50602090601f831160011461108c57600092611081575b50508160011b916000199060031b1c19161760048301555b60a08101518051906001600160401b03821161106b57610e6e60058501546114a4565b601f8111611024575b50602090601f8311600114610fae579180600b94926101c094600092610fa3575b50508160011b916000199060031b1c19161760058501555b60c0810151600685015560e081015160078501556101008101516008850155610f44600985016101208301511515815461ff00610140860151151560081b169060ff62ff0000610160880151151560101b1693169062ffffff1916171717815560018060a01b03610180840151168154906301000000600160b81b039060181b16906301000000600160b81b031916179055565b6101a0810151600a85015501519101557f5db69880ecd741cb72927505845a9c757184babea65c98a27788100ff8fbd186610f8a60405193606085526060850190611584565b92608435602082015260a43560408201528033940390a3005b015190508880610e98565b906005850160005260206000209160005b601f198516811061100c575092600b94926001926101c09583601f19811610610ff3575b505050811b016005850155610eb0565b015160001960f88460031b161c19169055888080610fe3565b91926020600181928685015181550194019201610fbf565b600585016000526020600020601f840160051c810160208510611064575b601f830160051c82018110611058575050610e77565b60008155600101611042565b5080611042565b634e487b7160e01b600052604160045260246000fd5b015190508680610e33565b9250600485016000526020600020906000935b601f19841685106110e3576001945083601f198116106110ca575b505050811b016004830155610e4b565b015160001960f88460031b161c191690558680806110ba565b8181015183556020948501946001909301929091019061109f565b909150600485016000526020600020601f840160051c81016020851061114a575b90849392915b601f830160051c8201811061113b575050610e1c565b60008155859450600101611125565b508061111f565b015190508680610dd6565b9250600385016000526020600020906000935b601f19841685106111b3576001945083601f1981161061119a575b505050811b016003830155610dee565b015160001960f88460031b161c1916905586808061118a565b8181015183556020948501946001909301929091019061116f565b909150600385016000526020600020601f840160051c81016020851061121a575b90849392915b601f830160051c8201811061120b575050610dbf565b600081558594506001016111f5565b50806111ef565b015190508680610d79565b9250600285016000526020600020906000935b601f1984168510611283576001945083601f1981161061126a575b505050811b016002830155610d91565b015160001960f88460031b161c1916905586808061125a565b8181015183556020948501946001909301929091019061123f565b909150600285016000526020600020601f840160051c8101602085106112ea575b90849392915b601f830160051c820181106112db575050610d62565b600081558594506001016112c5565b50806112bf565b60405162461bcd60e51b815260206004820152601960248201527f42696420696e6372656d656e74206d757374206265203e2030000000000000006044820152606490fd5b60405162461bcd60e51b815260206004820152602160248201527f456e642074696d65206d7573742062652061667465722073746172742074696d6044820152606560f81b6064820152608490fd5b60405162461bcd60e51b815260206004820152601c60248201527f53746172742074696d65206d75737420626520696e20667574757265000000006044820152606490fd5b3461013e57602036600319011261013e576004356001600160a01b038116919082900361013e57602091600052600482526040600020548152f35b6101e081019081106001600160401b0382111761106b57604052565b90601f801991011681019081106001600160401b0382111761106b57604052565b6001600160401b03811161106b57601f01601f191660200190565b81601f8201121561013e5780359061147482611442565b926114826040519485611421565b8284526020838301011161013e57816000926020809301838601378301015290565b90600182811c921680156114d4575b60208310146114be57565b634e487b7160e01b600052602260045260246000fd5b91607f16916114b3565b90604051918260008254926114f2846114a4565b908184526001948581169081600014611561575060011461151e575b505061151c92500383611421565b565b9093915060005260209081600020936000915b81831061154957505061151c9350820101388061150e565b85548884018501529485019487945091830191611531565b91505061151c94506020925060ff191682840152151560051b820101388061150e565b919082519283825260005b8481106115b0575050826000602080949584010152601f8019910116010190565b60208183018101518483018201520161158f565b908151815260018060a01b03918260208201511660208301526116356116236116116115ff60408501516101e0806040890152870190611584565b60608501518682036060880152611584565b60808401518582036080870152611584565b60a083015184820360a0860152611584565b9260c082015160c084015260e082015160e08401526101008083015190840152610120808301511515908401526101408083015115159084015261016080830151151590840152610180908183015116908301526101a080820151908301526101c08091015191015290565b6001546001600160a01b031633036116b557565b60405163118cdaa760e01b8152336004820152602490fd5b60001981146116dc5760010190565b634e487b7160e01b600052601160045260246000fd5b156116f957565b60405162461bcd60e51b815260206004820152601260248201527141756374696f6e206e6f742061637469766560701b6044820152606490fd5b1561173a57565b60405162461bcd60e51b815260206004820152600d60248201526c105d58dd1a5bdb88195b991959609a1b6044820152606490fd5b919082018092116116dc57565b60026000541461178d576002600055565b604051633ee5aeb560e01b8152600490fd5b3d156117ca573d906117b082611442565b916117be6040519384611421565b82523d6000602084013e565b606090565b919082039182116116dc57565b6001600160401b03811161106b5760051b60200190565b6040519061180082611405565b816101c06000918281528260208201526060604082015260608082015260606080820152606060a08201528260c08201528260e08201528261010082015282610120820152826101408201528261016082015282610180820152826101a08201520152565b80518210156118795760209160051b010190565b634e487b7160e01b600052603260045260246000fd5b9060029081549081841015611a3c576118bc916118ad85928361176f565b90808211611a34575b506117cf565b906118c6826117dc565b926040906118d682519586611421565b838552601f196118e5856117dc565b0160005b818110611a1d57505060005b84811061190457505050505090565b61190e818361176f565b9060018083018093116116dc57611a1892600052600b600360209281845261196b886000209289519561194087611405565b8454875260018060a01b03809486015416908701526119608b85016114de565b8a87015283016114de565b606085015261197c600483016114de565b608085015261198d600583016114de565b60a0850152600682015460c0850152600782015460e08501526008808301546101008601526009830154809160ff91829182821615156101208a01521c1615156101408701528160101c16151561016086015260181c16610180840152600a8101546101a084015201546101c0820152611a078289611865565b52611a128188611865565b506116cd565b6118f5565b602090611a286117f3565b82828a010152016118e9565b9050386118b6565b50505050604051602081018181106001600160401b0382111761106b57604052600081529056fea2646970667358221220ca80f94211fa4a57827ba64c2f898472e2d7f624750ebc0a1bb051eb17b4706064736f6c63430008140033",
  "linkReferences": {},
  "deployedLinkReferences": {}
}